{
  "contractName": "ContentNFT",
  "abi": [
    {
      "inputs": [
        {
          "internalType": "string",
          "name": "nftName",
          "type": "string"
        },
        {
          "internalType": "string",
          "name": "nftSymbol",
          "type": "string"
        }
      ],
      "stateMutability": "nonpayable",
      "type": "constructor"
    },
    {
      "inputs": [
        {
          "internalType": "address",
          "name": "sender",
          "type": "address"
        },
        {
          "internalType": "uint256",
          "name": "tokenId",
          "type": "uint256"
        },
        {
          "internalType": "address",
          "name": "owner",
          "type": "address"
        }
      ],
      "name": "ERC721IncorrectOwner",
      "type": "error"
    },
    {
      "inputs": [
        {
          "internalType": "address",
          "name": "operator",
          "type": "address"
        },
        {
          "internalType": "uint256",
          "name": "tokenId",
          "type": "uint256"
        }
      ],
      "name": "ERC721InsufficientApproval",
      "type": "error"
    },
    {
      "inputs": [
        {
          "internalType": "address",
          "name": "approver",
          "type": "address"
        }
      ],
      "name": "ERC721InvalidApprover",
      "type": "error"
    },
    {
      "inputs": [
        {
          "internalType": "address",
          "name": "operator",
          "type": "address"
        }
      ],
      "name": "ERC721InvalidOperator",
      "type": "error"
    },
    {
      "inputs": [
        {
          "internalType": "address",
          "name": "owner",
          "type": "address"
        }
      ],
      "name": "ERC721InvalidOwner",
      "type": "error"
    },
    {
      "inputs": [
        {
          "internalType": "address",
          "name": "receiver",
          "type": "address"
        }
      ],
      "name": "ERC721InvalidReceiver",
      "type": "error"
    },
    {
      "inputs": [
        {
          "internalType": "address",
          "name": "sender",
          "type": "address"
        }
      ],
      "name": "ERC721InvalidSender",
      "type": "error"
    },
    {
      "inputs": [
        {
          "internalType": "uint256",
          "name": "tokenId",
          "type": "uint256"
        }
      ],
      "name": "ERC721NonexistentToken",
      "type": "error"
    },
    {
      "inputs": [
        {
          "internalType": "address",
          "name": "owner",
          "type": "address"
        }
      ],
      "name": "OwnableInvalidOwner",
      "type": "error"
    },
    {
      "inputs": [
        {
          "internalType": "address",
          "name": "account",
          "type": "address"
        }
      ],
      "name": "OwnableUnauthorizedAccount",
      "type": "error"
    },
    {
      "anonymous": false,
      "inputs": [
        {
          "indexed": true,
          "internalType": "address",
          "name": "owner",
          "type": "address"
        },
        {
          "indexed": true,
          "internalType": "address",
          "name": "approved",
          "type": "address"
        },
        {
          "indexed": true,
          "internalType": "uint256",
          "name": "tokenId",
          "type": "uint256"
        }
      ],
      "name": "Approval",
      "type": "event"
    },
    {
      "anonymous": false,
      "inputs": [
        {
          "indexed": true,
          "internalType": "address",
          "name": "owner",
          "type": "address"
        },
        {
          "indexed": true,
          "internalType": "address",
          "name": "operator",
          "type": "address"
        },
        {
          "indexed": false,
          "internalType": "bool",
          "name": "approved",
          "type": "bool"
        }
      ],
      "name": "ApprovalForAll",
      "type": "event"
    },
    {
      "anonymous": false,
      "inputs": [
        {
          "indexed": true,
          "internalType": "uint256",
          "name": "tokenId",
          "type": "uint256"
        },
        {
          "indexed": false,
          "internalType": "uint256",
          "name": "newLikeCount",
          "type": "uint256"
        }
      ],
      "name": "ContentLiked",
      "type": "event"
    },
    {
      "anonymous": false,
      "inputs": [
        {
          "indexed": true,
          "internalType": "uint256",
          "name": "tokenId",
          "type": "uint256"
        },
        {
          "indexed": true,
          "internalType": "address",
          "name": "recipient",
          "type": "address"
        },
        {
          "indexed": false,
          "internalType": "string",
          "name": "ipfsHash",
          "type": "string"
        },
        {
          "indexed": false,
          "internalType": "uint256",
          "name": "mintTime",
          "type": "uint256"
        }
      ],
      "name": "ContentMinted",
      "type": "event"
    },
    {
      "anonymous": false,
      "inputs": [
        {
          "indexed": true,
          "internalType": "address",
          "name": "previousOwner",
          "type": "address"
        },
        {
          "indexed": true,
          "internalType": "address",
          "name": "newOwner",
          "type": "address"
        }
      ],
      "name": "OwnershipTransferred",
      "type": "event"
    },
    {
      "anonymous": false,
      "inputs": [
        {
          "indexed": true,
          "internalType": "address",
          "name": "from",
          "type": "address"
        },
        {
          "indexed": true,
          "internalType": "address",
          "name": "to",
          "type": "address"
        },
        {
          "indexed": true,
          "internalType": "uint256",
          "name": "tokenId",
          "type": "uint256"
        }
      ],
      "name": "Transfer",
      "type": "event"
    },
    {
      "inputs": [
        {
          "internalType": "address",
          "name": "to",
          "type": "address"
        },
        {
          "internalType": "uint256",
          "name": "tokenId",
          "type": "uint256"
        }
      ],
      "name": "approve",
      "outputs": [],
      "stateMutability": "nonpayable",
      "type": "function"
    },
    {
      "inputs": [
        {
          "internalType": "address",
          "name": "owner",
          "type": "address"
        }
      ],
      "name": "balanceOf",
      "outputs": [
        {
          "internalType": "uint256",
          "name": "",
          "type": "uint256"
        }
      ],
      "stateMutability": "view",
      "type": "function",
      "constant": true
    },
    {
      "inputs": [
        {
          "internalType": "uint256",
          "name": "tokenId",
          "type": "uint256"
        }
      ],
      "name": "getApproved",
      "outputs": [
        {
          "internalType": "address",
          "name": "",
          "type": "address"
        }
      ],
      "stateMutability": "view",
      "type": "function",
      "constant": true
    },
    {
      "inputs": [
        {
          "internalType": "address",
          "name": "owner",
          "type": "address"
        },
        {
          "internalType": "address",
          "name": "operator",
          "type": "address"
        }
      ],
      "name": "isApprovedForAll",
      "outputs": [
        {
          "internalType": "bool",
          "name": "",
          "type": "bool"
        }
      ],
      "stateMutability": "view",
      "type": "function",
      "constant": true
    },
    {
      "inputs": [],
      "name": "name",
      "outputs": [
        {
          "internalType": "string",
          "name": "",
          "type": "string"
        }
      ],
      "stateMutability": "view",
      "type": "function",
      "constant": true
    },
    {
      "inputs": [],
      "name": "owner",
      "outputs": [
        {
          "internalType": "address",
          "name": "",
          "type": "address"
        }
      ],
      "stateMutability": "view",
      "type": "function",
      "constant": true
    },
    {
      "inputs": [
        {
          "internalType": "uint256",
          "name": "tokenId",
          "type": "uint256"
        }
      ],
      "name": "ownerOf",
      "outputs": [
        {
          "internalType": "address",
          "name": "",
          "type": "address"
        }
      ],
      "stateMutability": "view",
      "type": "function",
      "constant": true
    },
    {
      "inputs": [],
      "name": "renounceOwnership",
      "outputs": [],
      "stateMutability": "nonpayable",
      "type": "function"
    },
    {
      "inputs": [
        {
          "internalType": "address",
          "name": "from",
          "type": "address"
        },
        {
          "internalType": "address",
          "name": "to",
          "type": "address"
        },
        {
          "internalType": "uint256",
          "name": "tokenId",
          "type": "uint256"
        }
      ],
      "name": "safeTransferFrom",
      "outputs": [],
      "stateMutability": "nonpayable",
      "type": "function"
    },
    {
      "inputs": [
        {
          "internalType": "address",
          "name": "from",
          "type": "address"
        },
        {
          "internalType": "address",
          "name": "to",
          "type": "address"
        },
        {
          "internalType": "uint256",
          "name": "tokenId",
          "type": "uint256"
        },
        {
          "internalType": "bytes",
          "name": "data",
          "type": "bytes"
        }
      ],
      "name": "safeTransferFrom",
      "outputs": [],
      "stateMutability": "nonpayable",
      "type": "function"
    },
    {
      "inputs": [
        {
          "internalType": "address",
          "name": "operator",
          "type": "address"
        },
        {
          "internalType": "bool",
          "name": "approved",
          "type": "bool"
        }
      ],
      "name": "setApprovalForAll",
      "outputs": [],
      "stateMutability": "nonpayable",
      "type": "function"
    },
    {
      "inputs": [
        {
          "internalType": "bytes4",
          "name": "interfaceId",
          "type": "bytes4"
        }
      ],
      "name": "supportsInterface",
      "outputs": [
        {
          "internalType": "bool",
          "name": "",
          "type": "bool"
        }
      ],
      "stateMutability": "view",
      "type": "function",
      "constant": true
    },
    {
      "inputs": [],
      "name": "symbol",
      "outputs": [
        {
          "internalType": "string",
          "name": "",
          "type": "string"
        }
      ],
      "stateMutability": "view",
      "type": "function",
      "constant": true
    },
    {
      "inputs": [
        {
          "internalType": "uint256",
          "name": "",
          "type": "uint256"
        }
      ],
      "name": "tokenMeta",
      "outputs": [
        {
          "internalType": "string",
          "name": "title",
          "type": "string"
        },
        {
          "internalType": "string",
          "name": "ipfsHash",
          "type": "string"
        },
        {
          "internalType": "string",
          "name": "contentType",
          "type": "string"
        },
        {
          "internalType": "uint256",
          "name": "mintTime",
          "type": "uint256"
        },
        {
          "internalType": "uint256",
          "name": "likeCount",
          "type": "uint256"
        }
      ],
      "stateMutability": "view",
      "type": "function",
      "constant": true
    },
    {
      "inputs": [
        {
          "internalType": "address",
          "name": "from",
          "type": "address"
        },
        {
          "internalType": "address",
          "name": "to",
          "type": "address"
        },
        {
          "internalType": "uint256",
          "name": "tokenId",
          "type": "uint256"
        }
      ],
      "name": "transferFrom",
      "outputs": [],
      "stateMutability": "nonpayable",
      "type": "function"
    },
    {
      "inputs": [
        {
          "internalType": "address",
          "name": "newOwner",
          "type": "address"
        }
      ],
      "name": "transferOwnership",
      "outputs": [],
      "stateMutability": "nonpayable",
      "type": "function"
    },
    {
      "inputs": [
        {
          "internalType": "address",
          "name": "to",
          "type": "address"
        },
        {
          "internalType": "string",
          "name": "title",
          "type": "string"
        },
        {
          "internalType": "string",
          "name": "ipfsHash",
          "type": "string"
        },
        {
          "internalType": "string",
          "name": "contentType",
          "type": "string"
        }
      ],
      "name": "mintContent",
      "outputs": [
        {
          "internalType": "uint256",
          "name": "",
          "type": "uint256"
        }
      ],
      "stateMutability": "nonpayable",
      "type": "function"
    },
    {
      "inputs": [
        {
          "internalType": "uint256",
          "name": "tokenId",
          "type": "uint256"
        }
      ],
      "name": "likeContent",
      "outputs": [],
      "stateMutability": "nonpayable",
      "type": "function"
    },
    {
      "inputs": [
        {
          "internalType": "uint256",
          "name": "tokenId",
          "type": "uint256"
        }
      ],
      "name": "tokenURI",
      "outputs": [
        {
          "internalType": "string",
          "name": "",
          "type": "string"
        }
      ],
      "stateMutability": "view",
      "type": "function",
      "constant": true
    },
    {
      "inputs": [
        {
          "internalType": "uint256[]",
          "name": "tokenIds",
          "type": "uint256[]"
        }
      ],
      "name": "batchGetTokenMeta",
      "outputs": [
        {
          "components": [
            {
              "internalType": "string",
              "name": "title",
              "type": "string"
            },
            {
              "internalType": "string",
              "name": "ipfsHash",
              "type": "string"
            },
            {
              "internalType": "string",
              "name": "contentType",
              "type": "string"
            },
            {
              "internalType": "uint256",
              "name": "mintTime",
              "type": "uint256"
            },
            {
              "internalType": "uint256",
              "name": "likeCount",
              "type": "uint256"
            }
          ],
          "internalType": "struct ContentNFT.ContentMeta[]",
          "name": "",
          "type": "tuple[]"
        }
      ],
      "stateMutability": "view",
      "type": "function",
      "constant": true
    }
  ],
  "bytecode": "0x60806040523480156200001157600080fd5b506040516200393038038062003930833981810160405281019062000037919062000350565b33828281600090816200004b919062000620565b5080600190816200005d919062000620565b505050600073ffffffffffffffffffffffffffffffffffffffff168173ffffffffffffffffffffffffffffffffffffffff1603620000d55760006040517f1e4fbdf7000000000000000000000000000000000000000000000000000000008152600401620000cc91906200074c565b60405180910390fd5b620000e681620000f760201b60201c565b506001600781905550505062000769565b6000600660009054906101000a900473ffffffffffffffffffffffffffffffffffffffff16905081600660006101000a81548173ffffffffffffffffffffffffffffffffffffffff021916908373ffffffffffffffffffffffffffffffffffffffff1602179055508173ffffffffffffffffffffffffffffffffffffffff168173ffffffffffffffffffffffffffffffffffffffff167f8be0079c531659141344cd1fd0a4f28419497f9722a3daafe3b4186f6b6457e060405160405180910390a35050565b6000604051905090565b600080fd5b600080fd5b600080fd5b600080fd5b6000601f19601f8301169050919050565b7f4e487b7100000000000000000000000000000000000000000000000000000000600052604160045260246000fd5b6200022682620001db565b810181811067ffffffffffffffff82111715620002485762000247620001ec565b5b80604052505050565b60006200025d620001bd565b90506200026b82826200021b565b919050565b600067ffffffffffffffff8211156200028e576200028d620001ec565b5b6200029982620001db565b9050602081019050919050565b60005b83811015620002c6578082015181840152602081019050620002a9565b60008484015250505050565b6000620002e9620002e38462000270565b62000251565b905082815260208101848484011115620003085762000307620001d6565b5b62000315848285620002a6565b509392505050565b600082601f830112620003355762000334620001d1565b5b815162000347848260208601620002d2565b91505092915050565b600080604083850312156200036a5762000369620001c7565b5b600083015167ffffffffffffffff8111156200038b576200038a620001cc565b5b62000399858286016200031d565b925050602083015167ffffffffffffffff811115620003bd57620003bc620001cc565b5b620003cb858286016200031d565b9150509250929050565b600081519050919050565b7f4e487b7100000000000000000000000000000000000000000000000000000000600052602260045260246000fd5b600060028204905060018216806200042857607f821691505b6020821081036200043e576200043d620003e0565b5b50919050565b60008190508160005260206000209050919050565b60006020601f8301049050919050565b600082821b905092915050565b600060088302620004a87fffffffffffffffffffffffffffffffffffffffffffffffffffffffffffffffff8262000469565b620004b4868362000469565b95508019841693508086168417925050509392505050565b6000819050919050565b6000819050919050565b600062000501620004fb620004f584620004cc565b620004d6565b620004cc565b9050919050565b6000819050919050565b6200051d83620004e0565b620005356200052c8262000508565b84845462000476565b825550505050565b600090565b6200054c6200053d565b6200055981848462000512565b505050565b5b8181101562000581576200057560008262000542565b6001810190506200055f565b5050565b601f821115620005d0576200059a8162000444565b620005a58462000459565b81016020851015620005b5578190505b620005cd620005c48562000459565b8301826200055e565b50505b505050565b600082821c905092915050565b6000620005f560001984600802620005d5565b1980831691505092915050565b6000620006108383620005e2565b9150826002028217905092915050565b6200062b82620003d5565b67ffffffffffffffff811115620006475762000646620001ec565b5b6200065382546200040f565b6200066082828562000585565b600060209050601f83116001811462000698576000841562000683578287015190505b6200068f858262000602565b865550620006ff565b601f198416620006a88662000444565b60005b82811015620006d257848901518255600182019150602085019450602081019050620006ab565b86831015620006f25784890151620006ee601f891682620005e2565b8355505b6001600288020188555050505b505050505050565b600073ffffffffffffffffffffffffffffffffffffffff82169050919050565b6000620007348262000707565b9050919050565b620007468162000727565b82525050565b60006020820190506200076360008301846200073b565b92915050565b6131b780620007796000396000f3fe608060405234801561001057600080fd5b506004361061012c5760003560e01c8063715018a6116100ad578063c87b56dd11610071578063c87b56dd14610331578063ccd8fcdb14610361578063e985e9c514610391578063eae87d7e146103c1578063f2fde38b146103f15761012c565b8063715018a6146102b35780638da5cb5b146102bd57806395d89b41146102db578063a22cb465146102f9578063b88d4fde146103155761012c565b806323b872dd116100f457806323b872dd146101ff57806342842e0e1461021b5780635f37cd61146102375780636352211e1461025357806370a08231146102835761012c565b806301ffc9a71461013157806306fdde0314610161578063081812fc1461017f578063095ea7b3146101af5780630ae7a310146101cb575b600080fd5b61014b6004803603810190610146919061203e565b61040d565b6040516101589190612086565b60405180910390f35b6101696104ef565b6040516101769190612131565b60405180910390f35b61019960048036038101906101949190612189565b610581565b6040516101a691906121f7565b60405180910390f35b6101c960048036038101906101c4919061223e565b61059d565b005b6101e560048036038101906101e09190612189565b6105b3565b6040516101f695949392919061228d565b60405180910390f35b610219600480360381019061021491906122f5565b610781565b005b610235600480360381019061023091906122f5565b610883565b005b610251600480360381019061024c9190612189565b6108a3565b005b61026d60048036038101906102689190612189565b61092a565b60405161027a91906121f7565b60405180910390f35b61029d60048036038101906102989190612348565b61093c565b6040516102aa9190612375565b60405180910390f35b6102bb6109f6565b005b6102c5610a0a565b6040516102d291906121f7565b60405180910390f35b6102e3610a34565b6040516102f09190612131565b60405180910390f35b610313600480360381019061030e91906123bc565b610ac6565b005b61032f600480360381019061032a9190612531565b610adc565b005b61034b60048036038101906103469190612189565b610b01565b6040516103589190612131565b60405180910390f35b61037b60048036038101906103769190612614565b610d25565b6040516103889190612800565b60405180910390f35b6103ab60048036038101906103a69190612822565b610fda565b6040516103b89190612086565b60405180910390f35b6103db60048036038101906103d69190612903565b61106e565b6040516103e89190612375565b60405180910390f35b61040b60048036038101906104069190612348565b6112cd565b005b60007f80ac58cd000000000000000000000000000000000000000000000000000000007bffffffffffffffffffffffffffffffffffffffffffffffffffffffff1916827bffffffffffffffffffffffffffffffffffffffffffffffffffffffff191614806104d857507f5b5e139f000000000000000000000000000000000000000000000000000000007bffffffffffffffffffffffffffffffffffffffffffffffffffffffff1916827bffffffffffffffffffffffffffffffffffffffffffffffffffffffff1916145b806104e857506104e782611353565b5b9050919050565b6060600080546104fe906129ed565b80601f016020809104026020016040519081016040528092919081815260200182805461052a906129ed565b80156105775780601f1061054c57610100808354040283529160200191610577565b820191906000526020600020905b81548152906001019060200180831161055a57829003601f168201915b5050505050905090565b600061058c826113bd565b5061059682611445565b9050919050565b6105af82826105aa611482565b61148a565b5050565b60086020528060005260406000206000915090508060000180546105d6906129ed565b80601f0160208091040260200160405190810160405280929190818152602001828054610602906129ed565b801561064f5780601f106106245761010080835404028352916020019161064f565b820191906000526020600020905b81548152906001019060200180831161063257829003601f168201915b505050505090806001018054610664906129ed565b80601f0160208091040260200160405190810160405280929190818152602001828054610690906129ed565b80156106dd5780601f106106b2576101008083540402835291602001916106dd565b820191906000526020600020905b8154815290600101906020018083116106c057829003601f168201915b5050505050908060020180546106f2906129ed565b80601f016020809104026020016040519081016040528092919081815260200182805461071e906129ed565b801561076b5780601f106107405761010080835404028352916020019161076b565b820191906000526020600020905b81548152906001019060200180831161074e57829003601f168201915b5050505050908060030154908060040154905085565b600073ffffffffffffffffffffffffffffffffffffffff168273ffffffffffffffffffffffffffffffffffffffff16036107f35760006040517f64a0ae920000000000000000000000000000000000000000000000000000000081526004016107ea91906121f7565b60405180910390fd5b60006108078383610802611482565b61149c565b90508373ffffffffffffffffffffffffffffffffffffffff168173ffffffffffffffffffffffffffffffffffffffff161461087d578382826040517f64283d7b00000000000000000000000000000000000000000000000000000000815260040161087493929190612a1e565b60405180910390fd5b50505050565b61089e83838360405180602001604052806000815250610adc565b505050565b6108ac8161092a565b506008600082815260200190815260200160002060040160008154809291906108d490612a84565b9190505550807f8221de2d53bd518636253075efe40107ce462b26f9fa379e9dab5a3639d05887600860008481526020019081526020016000206004015460405161091f9190612375565b60405180910390a250565b6000610935826113bd565b9050919050565b60008073ffffffffffffffffffffffffffffffffffffffff168273ffffffffffffffffffffffffffffffffffffffff16036109af5760006040517f89c62b640000000000000000000000000000000000000000000000000000000081526004016109a691906121f7565b60405180910390fd5b600360008373ffffffffffffffffffffffffffffffffffffffff1673ffffffffffffffffffffffffffffffffffffffff168152602001908152602001600020549050919050565b6109fe6116b6565b610a08600061173d565b565b6000600660009054906101000a900473ffffffffffffffffffffffffffffffffffffffff16905090565b606060018054610a43906129ed565b80601f0160208091040260200160405190810160405280929190818152602001828054610a6f906129ed565b8015610abc5780601f10610a9157610100808354040283529160200191610abc565b820191906000526020600020905b815481529060010190602001808311610a9f57829003601f168201915b5050505050905090565b610ad8610ad1611482565b8383611803565b5050565b610ae7848484610781565b610afb610af2611482565b85858585611972565b50505050565b6060610b0c8261092a565b506000600860008481526020019081526020016000206040518060a0016040529081600082018054610b3d906129ed565b80601f0160208091040260200160405190810160405280929190818152602001828054610b69906129ed565b8015610bb65780601f10610b8b57610100808354040283529160200191610bb6565b820191906000526020600020905b815481529060010190602001808311610b9957829003601f168201915b50505050508152602001600182018054610bcf906129ed565b80601f0160208091040260200160405190810160405280929190818152602001828054610bfb906129ed565b8015610c485780601f10610c1d57610100808354040283529160200191610c48565b820191906000526020600020905b815481529060010190602001808311610c2b57829003601f168201915b50505050508152602001600282018054610c61906129ed565b80601f0160208091040260200160405190810160405280929190818152602001828054610c8d906129ed565b8015610cda5780601f10610caf57610100808354040283529160200191610cda565b820191906000526020600020905b815481529060010190602001808311610cbd57829003601f168201915b505050505081526020016003820154815260200160048201548152505090508060200151604051602001610d0e9190612b54565b604051602081830303815290604052915050919050565b6060600083839050905060008167ffffffffffffffff811115610d4b57610d4a612406565b5b604051908082528060200260200182016040528015610d8457816020015b610d71611fa3565b815260200190600190039081610d695790505b50905060005b82811015610fce576000868683818110610da757610da6612b76565b5b905060200201359050610db98161092a565b50600860008281526020019081526020016000206040518060a0016040529081600082018054610de8906129ed565b80601f0160208091040260200160405190810160405280929190818152602001828054610e14906129ed565b8015610e615780601f10610e3657610100808354040283529160200191610e61565b820191906000526020600020905b815481529060010190602001808311610e4457829003601f168201915b50505050508152602001600182018054610e7a906129ed565b80601f0160208091040260200160405190810160405280929190818152602001828054610ea6906129ed565b8015610ef35780601f10610ec857610100808354040283529160200191610ef3565b820191906000526020600020905b815481529060010190602001808311610ed657829003601f168201915b50505050508152602001600282018054610f0c906129ed565b80601f0160208091040260200160405190810160405280929190818152602001828054610f38906129ed565b8015610f855780601f10610f5a57610100808354040283529160200191610f85565b820191906000526020600020905b815481529060010190602001808311610f6857829003601f168201915b5050505050815260200160038201548152602001600482015481525050838381518110610fb557610fb4612b76565b5b6020026020010181905250508080600101915050610d8a565b50809250505092915050565b6000600560008473ffffffffffffffffffffffffffffffffffffffff1673ffffffffffffffffffffffffffffffffffffffff16815260200190815260200160002060008373ffffffffffffffffffffffffffffffffffffffff1673ffffffffffffffffffffffffffffffffffffffff16815260200190815260200160002060009054906101000a900460ff16905092915050565b60006110786116b6565b600073ffffffffffffffffffffffffffffffffffffffff168573ffffffffffffffffffffffffffffffffffffffff16036110e7576040517f08c379a00000000000000000000000000000000000000000000000000000000081526004016110de90612c17565b60405180910390fd5b600084511161112b576040517f08c379a000000000000000000000000000000000000000000000000000000000815260040161112290612c83565b60405180910390fd5b600083511161116f576040517f08c379a000000000000000000000000000000000000000000000000000000000815260040161116690612d15565b60405180910390fd5b60008251116111b3576040517f08c379a00000000000000000000000000000000000000000000000000000000081526004016111aa90612da7565b60405180910390fd5b60006007549050600760008154809291906111cd90612a84565b91905055506111dc8682611b23565b6040518060a00160405280868152602001858152602001848152602001428152602001600081525060086000838152602001908152602001600020600082015181600001908161122c9190612f73565b5060208201518160010190816112429190612f73565b5060408201518160020190816112589190612f73565b5060608201518160030155608082015181600401559050508573ffffffffffffffffffffffffffffffffffffffff16817fad2f3102b52ed78d88ffedc01e0fb70ea3136f36d26b38f6969d9a514c7be45a86426040516112b9929190613045565b60405180910390a380915050949350505050565b6112d56116b6565b600073ffffffffffffffffffffffffffffffffffffffff168173ffffffffffffffffffffffffffffffffffffffff16036113475760006040517f1e4fbdf700000000000000000000000000000000000000000000000000000000815260040161133e91906121f7565b60405180910390fd5b6113508161173d565b50565b60007f01ffc9a7000000000000000000000000000000000000000000000000000000007bffffffffffffffffffffffffffffffffffffffffffffffffffffffff1916827bffffffffffffffffffffffffffffffffffffffffffffffffffffffff1916149050919050565b6000806113c983611c1c565b9050600073ffffffffffffffffffffffffffffffffffffffff168173ffffffffffffffffffffffffffffffffffffffff160361143c57826040517f7e2732890000000000000000000000000000000000000000000000000000000081526004016114339190612375565b60405180910390fd5b80915050919050565b60006004600083815260200190815260200160002060009054906101000a900473ffffffffffffffffffffffffffffffffffffffff169050919050565b600033905090565b6114978383836001611c59565b505050565b6000806114a884611c1c565b9050600073ffffffffffffffffffffffffffffffffffffffff168373ffffffffffffffffffffffffffffffffffffffff16146114ea576114e9818486611e1e565b5b600073ffffffffffffffffffffffffffffffffffffffff168173ffffffffffffffffffffffffffffffffffffffff161461157b5761152c600085600080611c59565b6001600360008373ffffffffffffffffffffffffffffffffffffffff1673ffffffffffffffffffffffffffffffffffffffff168152602001908152602001600020600082825403925050819055505b600073ffffffffffffffffffffffffffffffffffffffff168573ffffffffffffffffffffffffffffffffffffffff16146115fe576001600360008773ffffffffffffffffffffffffffffffffffffffff1673ffffffffffffffffffffffffffffffffffffffff168152602001908152602001600020600082825401925050819055505b846002600086815260200190815260200160002060006101000a81548173ffffffffffffffffffffffffffffffffffffffff021916908373ffffffffffffffffffffffffffffffffffffffff160217905550838573ffffffffffffffffffffffffffffffffffffffff168273ffffffffffffffffffffffffffffffffffffffff167fddf252ad1be2c89b69c2b068fc378daa952ba7f163c4a11628f55a4df523b3ef60405160405180910390a4809150509392505050565b6116be611482565b73ffffffffffffffffffffffffffffffffffffffff166116dc610a0a565b73ffffffffffffffffffffffffffffffffffffffff161461173b576116ff611482565b6040517f118cdaa700000000000000000000000000000000000000000000000000000000815260040161173291906121f7565b60405180910390fd5b565b6000600660009054906101000a900473ffffffffffffffffffffffffffffffffffffffff16905081600660006101000a81548173ffffffffffffffffffffffffffffffffffffffff021916908373ffffffffffffffffffffffffffffffffffffffff1602179055508173ffffffffffffffffffffffffffffffffffffffff168173ffffffffffffffffffffffffffffffffffffffff167f8be0079c531659141344cd1fd0a4f28419497f9722a3daafe3b4186f6b6457e060405160405180910390a35050565b600073ffffffffffffffffffffffffffffffffffffffff168273ffffffffffffffffffffffffffffffffffffffff160361187457816040517f5b08ba1800000000000000000000000000000000000000000000000000000000815260040161186b91906121f7565b60405180910390fd5b80600560008573ffffffffffffffffffffffffffffffffffffffff1673ffffffffffffffffffffffffffffffffffffffff16815260200190815260200160002060008473ffffffffffffffffffffffffffffffffffffffff1673ffffffffffffffffffffffffffffffffffffffff16815260200190815260200160002060006101000a81548160ff0219169083151502179055508173ffffffffffffffffffffffffffffffffffffffff168373ffffffffffffffffffffffffffffffffffffffff167f17307eab39ab6107e8899845ad3d59bd9653f200f220920489ca2b5937696c31836040516119659190612086565b60405180910390a3505050565b60008373ffffffffffffffffffffffffffffffffffffffff163b1115611b1c578273ffffffffffffffffffffffffffffffffffffffff1663150b7a02868685856040518563ffffffff1660e01b81526004016119d194939291906130ca565b6020604051808303816000875af1925050508015611a0d57506040513d601f19601f82011682018060405250810190611a0a919061312b565b60015b611a91573d8060008114611a3d576040519150601f19603f3d011682016040523d82523d6000602084013e611a42565b606091505b506000815103611a8957836040517f64a0ae92000000000000000000000000000000000000000000000000000000008152600401611a8091906121f7565b60405180910390fd5b805160208201fd5b63150b7a0260e01b7bffffffffffffffffffffffffffffffffffffffffffffffffffffffff1916817bffffffffffffffffffffffffffffffffffffffffffffffffffffffff191614611b1a57836040517f64a0ae92000000000000000000000000000000000000000000000000000000008152600401611b1191906121f7565b60405180910390fd5b505b5050505050565b600073ffffffffffffffffffffffffffffffffffffffff168273ffffffffffffffffffffffffffffffffffffffff1603611b955760006040517f64a0ae92000000000000000000000000000000000000000000000000000000008152600401611b8c91906121f7565b60405180910390fd5b6000611ba38383600061149c565b9050600073ffffffffffffffffffffffffffffffffffffffff168173ffffffffffffffffffffffffffffffffffffffff1614611c175760006040517f73c6ac6e000000000000000000000000000000000000000000000000000000008152600401611c0e91906121f7565b60405180910390fd5b505050565b60006002600083815260200190815260200160002060009054906101000a900473ffffffffffffffffffffffffffffffffffffffff169050919050565b8080611c925750600073ffffffffffffffffffffffffffffffffffffffff168273ffffffffffffffffffffffffffffffffffffffff1614155b15611dc6576000611ca2846113bd565b9050600073ffffffffffffffffffffffffffffffffffffffff168373ffffffffffffffffffffffffffffffffffffffff1614158015611d0d57508273ffffffffffffffffffffffffffffffffffffffff168173ffffffffffffffffffffffffffffffffffffffff1614155b8015611d205750611d1e8184610fda565b155b15611d6257826040517fa9fbf51f000000000000000000000000000000000000000000000000000000008152600401611d5991906121f7565b60405180910390fd5b8115611dc457838573ffffffffffffffffffffffffffffffffffffffff168273ffffffffffffffffffffffffffffffffffffffff167f8c5be1e5ebec7d5bd14f71427d1e84f3dd0314c0f7b2291e5b200ac8c7c3b92560405160405180910390a45b505b836004600085815260200190815260200160002060006101000a81548173ffffffffffffffffffffffffffffffffffffffff021916908373ffffffffffffffffffffffffffffffffffffffff16021790555050505050565b611e29838383611ee2565b611edd57600073ffffffffffffffffffffffffffffffffffffffff168373ffffffffffffffffffffffffffffffffffffffff1603611e9e57806040517f7e273289000000000000000000000000000000000000000000000000000000008152600401611e959190612375565b60405180910390fd5b81816040517f177e802f000000000000000000000000000000000000000000000000000000008152600401611ed4929190613158565b60405180910390fd5b505050565b60008073ffffffffffffffffffffffffffffffffffffffff168373ffffffffffffffffffffffffffffffffffffffff1614158015611f9a57508273ffffffffffffffffffffffffffffffffffffffff168473ffffffffffffffffffffffffffffffffffffffff161480611f5b5750611f5a8484610fda565b5b80611f9957508273ffffffffffffffffffffffffffffffffffffffff16611f8183611445565b73ffffffffffffffffffffffffffffffffffffffff16145b5b90509392505050565b6040518060a0016040528060608152602001606081526020016060815260200160008152602001600081525090565b6000604051905090565b600080fd5b600080fd5b60007fffffffff0000000000000000000000000000000000000000000000000000000082169050919050565b61201b81611fe6565b811461202657600080fd5b50565b60008135905061203881612012565b92915050565b60006020828403121561205457612053611fdc565b5b600061206284828501612029565b91505092915050565b60008115159050919050565b6120808161206b565b82525050565b600060208201905061209b6000830184612077565b92915050565b600081519050919050565b600082825260208201905092915050565b60005b838110156120db5780820151818401526020810190506120c0565b60008484015250505050565b6000601f19601f8301169050919050565b6000612103826120a1565b61210d81856120ac565b935061211d8185602086016120bd565b612126816120e7565b840191505092915050565b6000602082019050818103600083015261214b81846120f8565b905092915050565b6000819050919050565b61216681612153565b811461217157600080fd5b50565b6000813590506121838161215d565b92915050565b60006020828403121561219f5761219e611fdc565b5b60006121ad84828501612174565b91505092915050565b600073ffffffffffffffffffffffffffffffffffffffff82169050919050565b60006121e1826121b6565b9050919050565b6121f1816121d6565b82525050565b600060208201905061220c60008301846121e8565b92915050565b61221b816121d6565b811461222657600080fd5b50565b60008135905061223881612212565b92915050565b6000806040838503121561225557612254611fdc565b5b600061226385828601612229565b925050602061227485828601612174565b9150509250929050565b61228781612153565b82525050565b600060a08201905081810360008301526122a781886120f8565b905081810360208301526122bb81876120f8565b905081810360408301526122cf81866120f8565b90506122de606083018561227e565b6122eb608083018461227e565b9695505050505050565b60008060006060848603121561230e5761230d611fdc565b5b600061231c86828701612229565b935050602061232d86828701612229565b925050604061233e86828701612174565b9150509250925092565b60006020828403121561235e5761235d611fdc565b5b600061236c84828501612229565b91505092915050565b600060208201905061238a600083018461227e565b92915050565b6123998161206b565b81146123a457600080fd5b50565b6000813590506123b681612390565b92915050565b600080604083850312156123d3576123d2611fdc565b5b60006123e185828601612229565b92505060206123f2858286016123a7565b9150509250929050565b600080fd5b600080fd5b7f4e487b7100000000000000000000000000000000000000000000000000000000600052604160045260246000fd5b61243e826120e7565b810181811067ffffffffffffffff8211171561245d5761245c612406565b5b80604052505050565b6000612470611fd2565b905061247c8282612435565b919050565b600067ffffffffffffffff82111561249c5761249b612406565b5b6124a5826120e7565b9050602081019050919050565b82818337600083830152505050565b60006124d46124cf84612481565b612466565b9050828152602081018484840111156124f0576124ef612401565b5b6124fb8482856124b2565b509392505050565b600082601f830112612518576125176123fc565b5b81356125288482602086016124c1565b91505092915050565b6000806000806080858703121561254b5761254a611fdc565b5b600061255987828801612229565b945050602061256a87828801612229565b935050604061257b87828801612174565b925050606085013567ffffffffffffffff81111561259c5761259b611fe1565b5b6125a887828801612503565b91505092959194509250565b600080fd5b600080fd5b60008083601f8401126125d4576125d36123fc565b5b8235905067ffffffffffffffff8111156125f1576125f06125b4565b5b60208301915083602082028301111561260d5761260c6125b9565b5b9250929050565b6000806020838503121561262b5761262a611fdc565b5b600083013567ffffffffffffffff81111561264957612648611fe1565b5b612655858286016125be565b92509250509250929050565b600081519050919050565b600082825260208201905092915050565b6000819050602082019050919050565b600082825260208201905092915050565b60006126a9826120a1565b6126b3818561268d565b93506126c38185602086016120bd565b6126cc816120e7565b840191505092915050565b6126e081612153565b82525050565b600060a0830160008301518482036000860152612703828261269e565b9150506020830151848203602086015261271d828261269e565b91505060408301518482036040860152612737828261269e565b915050606083015161274c60608601826126d7565b50608083015161275f60808601826126d7565b508091505092915050565b600061277683836126e6565b905092915050565b6000602082019050919050565b600061279682612661565b6127a0818561266c565b9350836020820285016127b28561267d565b8060005b858110156127ee57848403895281516127cf858261276a565b94506127da8361277e565b925060208a019950506001810190506127b6565b50829750879550505050505092915050565b6000602082019050818103600083015261281a818461278b565b905092915050565b6000806040838503121561283957612838611fdc565b5b600061284785828601612229565b925050602061285885828601612229565b9150509250929050565b600067ffffffffffffffff82111561287d5761287c612406565b5b612886826120e7565b9050602081019050919050565b60006128a66128a184612862565b612466565b9050828152602081018484840111156128c2576128c1612401565b5b6128cd8482856124b2565b509392505050565b600082601f8301126128ea576128e96123fc565b5b81356128fa848260208601612893565b91505092915050565b6000806000806080858703121561291d5761291c611fdc565b5b600061292b87828801612229565b945050602085013567ffffffffffffffff81111561294c5761294b611fe1565b5b612958878288016128d5565b935050604085013567ffffffffffffffff81111561297957612978611fe1565b5b612985878288016128d5565b925050606085013567ffffffffffffffff8111156129a6576129a5611fe1565b5b6129b2878288016128d5565b91505092959194509250565b7f4e487b7100000000000000000000000000000000000000000000000000000000600052602260045260246000fd5b60006002820490506001821680612a0557607f821691505b602082108103612a1857612a176129be565b5b50919050565b6000606082019050612a3360008301866121e8565b612a40602083018561227e565b612a4d60408301846121e8565b949350505050565b7f4e487b7100000000000000000000000000000000000000000000000000000000600052601160045260246000fd5b6000612a8f82612153565b91507fffffffffffffffffffffffffffffffffffffffffffffffffffffffffffffffff8203612ac157612ac0612a55565b5b600182019050919050565b600081905092915050565b7f697066733a2f2f00000000000000000000000000000000000000000000000000600082015250565b6000612b0d600783612acc565b9150612b1882612ad7565b600782019050919050565b6000612b2e826120a1565b612b388185612acc565b9350612b488185602086016120bd565b80840191505092915050565b6000612b5f82612b00565b9150612b6b8284612b23565b915081905092915050565b7f4e487b7100000000000000000000000000000000000000000000000000000000600052603260045260246000fd5b7f436f6e74656e744e46543a20e68ea5e694b6e59cb0e59d80e4b88de883bde4b860008201527fbae99bb6e59cb0e59d8000000000000000000000000000000000000000000000602082015250565b6000612c01602a836120ac565b9150612c0c82612ba5565b604082019050919050565b60006020820190508181036000830152612c3081612bf4565b9050919050565b7f436f6e74656e744e46543a20e6a087e9a298e4b88de883bde4b8bae7a9ba0000600082015250565b6000612c6d601e836120ac565b9150612c7882612c37565b602082019050919050565b60006020820190508181036000830152612c9c81612c60565b9050919050565b7f436f6e74656e744e46543a2049504653e59388e5b88ce4b88de883bde4b8bae760008201527fa9ba000000000000000000000000000000000000000000000000000000000000602082015250565b6000612cff6022836120ac565b9150612d0a82612ca3565b604082019050919050565b60006020820190508181036000830152612d2e81612cf2565b9050919050565b7f436f6e74656e744e46543a20e58685e5aeb9e7b1bbe59e8be4b88de883bde4b860008201527fbae7a9ba00000000000000000000000000000000000000000000000000000000602082015250565b6000612d916024836120ac565b9150612d9c82612d35565b604082019050919050565b60006020820190508181036000830152612dc081612d84565b9050919050565b60008190508160005260206000209050919050565b60006020601f8301049050919050565b600082821b905092915050565b600060088302612e297fffffffffffffffffffffffffffffffffffffffffffffffffffffffffffffffff82612dec565b612e338683612dec565b95508019841693508086168417925050509392505050565b6000819050919050565b6000612e70612e6b612e6684612153565b612e4b565b612153565b9050919050565b6000819050919050565b612e8a83612e55565b612e9e612e9682612e77565b848454612df9565b825550505050565b600090565b612eb3612ea6565b612ebe818484612e81565b505050565b5b81811015612ee257612ed7600082612eab565b600181019050612ec4565b5050565b601f821115612f2757612ef881612dc7565b612f0184612ddc565b81016020851015612f10578190505b612f24612f1c85612ddc565b830182612ec3565b50505b505050565b600082821c905092915050565b6000612f4a60001984600802612f2c565b1980831691505092915050565b6000612f638383612f39565b9150826002028217905092915050565b612f7c826120a1565b67ffffffffffffffff811115612f9557612f94612406565b5b612f9f82546129ed565b612faa828285612ee6565b600060209050601f831160018114612fdd5760008415612fcb578287015190505b612fd58582612f57565b86555061303d565b601f198416612feb86612dc7565b60005b8281101561301357848901518255600182019150602085019450602081019050612fee565b86831015613030578489015161302c601f891682612f39565b8355505b6001600288020188555050505b505050505050565b6000604082019050818103600083015261305f81856120f8565b905061306e602083018461227e565b9392505050565b600081519050919050565b600082825260208201905092915050565b600061309c82613075565b6130a68185613080565b93506130b68185602086016120bd565b6130bf816120e7565b840191505092915050565b60006080820190506130df60008301876121e8565b6130ec60208301866121e8565b6130f9604083018561227e565b818103606083015261310b8184613091565b905095945050505050565b60008151905061312581612012565b92915050565b60006020828403121561314157613140611fdc565b5b600061314f84828501613116565b91505092915050565b600060408201905061316d60008301856121e8565b61317a602083018461227e565b939250505056fea2646970667358221220f7c8fd00166365201b5a68e2aadb4ac59e4be9d12753d382db6b0479302b9a9164736f6c63430008180033",
  "immutableReferences": {},
  "source": "// SPDX-License-Identifier: MIT\npragma solidity ^0.8.24;\n\nimport \"@openzeppelin/contracts/token/ERC721/ERC721.sol\";\nimport \"@openzeppelin/contracts/access/Ownable.sol\";\n\ncontract ContentNFT is ERC721, Ownable {\n    uint256 private _nextTokenId;\n\n    struct ContentMeta {\n        string title;\n        string ipfsHash;\n        string contentType;\n        uint256 mintTime;\n        uint256 likeCount;\n    }\n\n    event ContentMinted(\n        uint256 indexed tokenId,\n        address indexed recipient,\n        string ipfsHash,\n        uint256 mintTime\n    );\n\n    event ContentLiked(uint256 indexed tokenId, uint256 newLikeCount);\n\n    mapping(uint256 => ContentMeta) public tokenMeta;\n\n    /**\n     *  `: Ownable(msg.sender)`\n     *  ERC721 \n     */\n    constructor(\n        string memory nftName,\n        string memory nftSymbol\n    ) ERC721(nftName, nftSymbol) Ownable(msg.sender) { //  Ownable(msg.sender)\n        _nextTokenId = 1;\n    }\n\n    function mintContent(\n        address to,\n        string memory title,\n        string memory ipfsHash,\n        string memory contentType\n    ) external onlyOwner returns (uint256) {\n        require(to != address(0), unicode\"ContentNFT: \");\n        require(bytes(title).length > 0, unicode\"ContentNFT: \");\n        require(bytes(ipfsHash).length > 0, unicode\"ContentNFT: IPFS\");\n        require(bytes(contentType).length > 0, unicode\"ContentNFT: \");\n\n        uint256 tokenId = _nextTokenId;\n        _nextTokenId++;\n\n        _mint(to, tokenId);\n\n        tokenMeta[tokenId] = ContentMeta({\n            title: title,\n            ipfsHash: ipfsHash,\n            contentType: contentType,\n            mintTime: block.timestamp,\n            likeCount: 0\n        });\n\n        emit ContentMinted(tokenId, to, ipfsHash, block.timestamp);\n        return tokenId;\n    }\n\n    function likeContent(uint256 tokenId) external {\n        ownerOf(tokenId);\n        tokenMeta[tokenId].likeCount++;\n        emit ContentLiked(tokenId, tokenMeta[tokenId].likeCount);\n    }\n\n    function tokenURI(uint256 tokenId) public view override returns (string memory) {\n        ownerOf(tokenId);\n        ContentMeta memory meta = tokenMeta[tokenId];\n        return string(abi.encodePacked(\"ipfs://\", meta.ipfsHash));\n    }\n\n    function batchGetTokenMeta(uint256[] calldata tokenIds) external view returns (ContentMeta[] memory) {\n        uint256 length = tokenIds.length;\n        ContentMeta[] memory metaList = new ContentMeta[](length);\n\n        for (uint256 i = 0; i < length; i++) {\n            uint256 tokenId = tokenIds[i];\n            ownerOf(tokenId);\n            metaList[i] = tokenMeta[tokenId];\n        }\n\n        return metaList;\n    }\n}",
  "sourcePath": "/Volumes/2nd-HD/github/starlink/contracts/ContentNFT.sol",
  "compiler": {
    "name": "solc",
    "version": "0.8.24+commit.e11b9ed9.Linux.g++"
  },
  "schemaVersion": "3.4.16",
  "updatedAt": "2025-09-15T18:01:27.018Z",
  "networkType": "ethereum",
  "devdoc": {
    "errors": {
      "ERC721IncorrectOwner(address,uint256,address)": [
        {
          "details": "Indicates an error related to the ownership over a particular token. Used in transfers.",
          "params": {
            "owner": "Address of the current owner of a token.",
            "sender": "Address whose tokens are being transferred.",
            "tokenId": "Identifier number of a token."
          }
        }
      ],
      "ERC721InsufficientApproval(address,uint256)": [
        {
          "details": "Indicates a failure with the `operator`s approval. Used in transfers.",
          "params": {
            "operator": "Address that may be allowed to operate on tokens without being their owner.",
            "tokenId": "Identifier number of a token."
          }
        }
      ],
      "ERC721InvalidApprover(address)": [
        {
          "details": "Indicates a failure with the `approver` of a token to be approved. Used in approvals.",
          "params": {
            "approver": "Address initiating an approval operation."
          }
        }
      ],
      "ERC721InvalidOperator(address)": [
        {
          "details": "Indicates a failure with the `operator` to be approved. Used in approvals.",
          "params": {
            "operator": "Address that may be allowed to operate on tokens without being their owner."
          }
        }
      ],
      "ERC721InvalidOwner(address)": [
        {
          "details": "Indicates that an address can't be an owner. For example, `address(0)` is a forbidden owner in ERC-20. Used in balance queries.",
          "params": {
            "owner": "Address of the current owner of a token."
          }
        }
      ],
      "ERC721InvalidReceiver(address)": [
        {
          "details": "Indicates a failure with the token `receiver`. Used in transfers.",
          "params": {
            "receiver": "Address to which tokens are being transferred."
          }
        }
      ],
      "ERC721InvalidSender(address)": [
        {
          "details": "Indicates a failure with the token `sender`. Used in transfers.",
          "params": {
            "sender": "Address whose tokens are being transferred."
          }
        }
      ],
      "ERC721NonexistentToken(uint256)": [
        {
          "details": "Indicates a `tokenId` whose `owner` is the zero address.",
          "params": {
            "tokenId": "Identifier number of a token."
          }
        }
      ],
      "OwnableInvalidOwner(address)": [
        {
          "details": "The owner is not a valid owner account. (eg. `address(0)`)"
        }
      ],
      "OwnableUnauthorizedAccount(address)": [
        {
          "details": "The caller account is not authorized to perform an operation."
        }
      ]
    },
    "events": {
      "Approval(address,address,uint256)": {
        "details": "Emitted when `owner` enables `approved` to manage the `tokenId` token."
      },
      "ApprovalForAll(address,address,bool)": {
        "details": "Emitted when `owner` enables or disables (`approved`) `operator` to manage all of its assets."
      },
      "Transfer(address,address,uint256)": {
        "details": "Emitted when `tokenId` token is transferred from `from` to `to`."
      }
    },
    "kind": "dev",
    "methods": {
      "approve(address,uint256)": {
        "details": "Gives permission to `to` to transfer `tokenId` token to another account. The approval is cleared when the token is transferred. Only a single account can be approved at a time, so approving the zero address clears previous approvals. Requirements: - The caller must own the token or be an approved operator. - `tokenId` must exist. Emits an {Approval} event."
      },
      "balanceOf(address)": {
        "details": "Returns the number of tokens in ``owner``'s account."
      },
      "getApproved(uint256)": {
        "details": "Returns the account approved for `tokenId` token. Requirements: - `tokenId` must exist."
      },
      "isApprovedForAll(address,address)": {
        "details": "Returns if the `operator` is allowed to manage all of the assets of `owner`. See {setApprovalForAll}"
      },
      "name()": {
        "details": "Returns the token collection name."
      },
      "owner()": {
        "details": "Returns the address of the current owner."
      },
      "ownerOf(uint256)": {
        "details": "Returns the owner of the `tokenId` token. Requirements: - `tokenId` must exist."
      },
      "renounceOwnership()": {
        "details": "Leaves the contract without owner. It will not be possible to call `onlyOwner` functions. Can only be called by the current owner. NOTE: Renouncing ownership will leave the contract without an owner, thereby disabling any functionality that is only available to the owner."
      },
      "safeTransferFrom(address,address,uint256)": {
        "details": "Safely transfers `tokenId` token from `from` to `to`, checking first that contract recipients are aware of the ERC-721 protocol to prevent tokens from being forever locked. Requirements: - `from` cannot be the zero address. - `to` cannot be the zero address. - `tokenId` token must exist and be owned by `from`. - If the caller is not `from`, it must have been allowed to move this token by either {approve} or   {setApprovalForAll}. - If `to` refers to a smart contract, it must implement {IERC721Receiver-onERC721Received}, which is called upon   a safe transfer. Emits a {Transfer} event."
      },
      "safeTransferFrom(address,address,uint256,bytes)": {
        "details": "Safely transfers `tokenId` token from `from` to `to`. Requirements: - `from` cannot be the zero address. - `to` cannot be the zero address. - `tokenId` token must exist and be owned by `from`. - If the caller is not `from`, it must be approved to move this token by either {approve} or {setApprovalForAll}. - If `to` refers to a smart contract, it must implement {IERC721Receiver-onERC721Received}, which is called upon   a safe transfer. Emits a {Transfer} event."
      },
      "setApprovalForAll(address,bool)": {
        "details": "Approve or remove `operator` as an operator for the caller. Operators can call {transferFrom} or {safeTransferFrom} for any token owned by the caller. Requirements: - The `operator` cannot be the address zero. Emits an {ApprovalForAll} event."
      },
      "supportsInterface(bytes4)": {
        "details": "Returns true if this contract implements the interface defined by `interfaceId`. See the corresponding https://eips.ethereum.org/EIPS/eip-165#how-interfaces-are-identified[ERC section] to learn more about how these ids are created. This function call must use less than 30 000 gas."
      },
      "symbol()": {
        "details": "Returns the token collection symbol."
      },
      "tokenURI(uint256)": {
        "details": "Returns the Uniform Resource Identifier (URI) for `tokenId` token."
      },
      "transferFrom(address,address,uint256)": {
        "details": "Transfers `tokenId` token from `from` to `to`. WARNING: Note that the caller is responsible to confirm that the recipient is capable of receiving ERC-721 or else they may be permanently lost. Usage of {safeTransferFrom} prevents loss, though the caller must understand this adds an external call which potentially creates a reentrancy vulnerability. Requirements: - `from` cannot be the zero address. - `to` cannot be the zero address. - `tokenId` token must be owned by `from`. - If the caller is not `from`, it must be approved to move this token by either {approve} or {setApprovalForAll}. Emits a {Transfer} event."
      },
      "transferOwnership(address)": {
        "details": "Transfers ownership of the contract to a new account (`newOwner`). Can only be called by the current owner."
      }
    },
    "version": 1
  },
  "userdoc": {
    "kind": "user",
    "methods": {
      "constructor": {
        "notice": " `: Ownable(msg.sender)`  ERC721 "
      }
    },
    "version": 1
  }
}