{
  "contractName": "ContentNFT",
  "abi": [
    {
      "inputs": [
        {
          "internalType": "string",
          "name": "nftName",
          "type": "string"
        },
        {
          "internalType": "string",
          "name": "nftSymbol",
          "type": "string"
        }
      ],
      "stateMutability": "nonpayable",
      "type": "constructor"
    },
    {
      "inputs": [
        {
          "internalType": "address",
          "name": "sender",
          "type": "address"
        },
        {
          "internalType": "uint256",
          "name": "tokenId",
          "type": "uint256"
        },
        {
          "internalType": "address",
          "name": "owner",
          "type": "address"
        }
      ],
      "name": "ERC721IncorrectOwner",
      "type": "error"
    },
    {
      "inputs": [
        {
          "internalType": "address",
          "name": "operator",
          "type": "address"
        },
        {
          "internalType": "uint256",
          "name": "tokenId",
          "type": "uint256"
        }
      ],
      "name": "ERC721InsufficientApproval",
      "type": "error"
    },
    {
      "inputs": [
        {
          "internalType": "address",
          "name": "approver",
          "type": "address"
        }
      ],
      "name": "ERC721InvalidApprover",
      "type": "error"
    },
    {
      "inputs": [
        {
          "internalType": "address",
          "name": "operator",
          "type": "address"
        }
      ],
      "name": "ERC721InvalidOperator",
      "type": "error"
    },
    {
      "inputs": [
        {
          "internalType": "address",
          "name": "owner",
          "type": "address"
        }
      ],
      "name": "ERC721InvalidOwner",
      "type": "error"
    },
    {
      "inputs": [
        {
          "internalType": "address",
          "name": "receiver",
          "type": "address"
        }
      ],
      "name": "ERC721InvalidReceiver",
      "type": "error"
    },
    {
      "inputs": [
        {
          "internalType": "address",
          "name": "sender",
          "type": "address"
        }
      ],
      "name": "ERC721InvalidSender",
      "type": "error"
    },
    {
      "inputs": [
        {
          "internalType": "uint256",
          "name": "tokenId",
          "type": "uint256"
        }
      ],
      "name": "ERC721NonexistentToken",
      "type": "error"
    },
    {
      "inputs": [
        {
          "internalType": "address",
          "name": "owner",
          "type": "address"
        }
      ],
      "name": "OwnableInvalidOwner",
      "type": "error"
    },
    {
      "inputs": [
        {
          "internalType": "address",
          "name": "account",
          "type": "address"
        }
      ],
      "name": "OwnableUnauthorizedAccount",
      "type": "error"
    },
    {
      "anonymous": false,
      "inputs": [
        {
          "indexed": true,
          "internalType": "address",
          "name": "owner",
          "type": "address"
        },
        {
          "indexed": true,
          "internalType": "address",
          "name": "approved",
          "type": "address"
        },
        {
          "indexed": true,
          "internalType": "uint256",
          "name": "tokenId",
          "type": "uint256"
        }
      ],
      "name": "Approval",
      "type": "event"
    },
    {
      "anonymous": false,
      "inputs": [
        {
          "indexed": true,
          "internalType": "address",
          "name": "owner",
          "type": "address"
        },
        {
          "indexed": true,
          "internalType": "address",
          "name": "operator",
          "type": "address"
        },
        {
          "indexed": false,
          "internalType": "bool",
          "name": "approved",
          "type": "bool"
        }
      ],
      "name": "ApprovalForAll",
      "type": "event"
    },
    {
      "anonymous": false,
      "inputs": [
        {
          "indexed": true,
          "internalType": "uint256",
          "name": "tokenId",
          "type": "uint256"
        },
        {
          "indexed": false,
          "internalType": "uint256",
          "name": "newLikeCount",
          "type": "uint256"
        }
      ],
      "name": "ContentLiked",
      "type": "event"
    },
    {
      "anonymous": false,
      "inputs": [
        {
          "indexed": true,
          "internalType": "uint256",
          "name": "tokenId",
          "type": "uint256"
        },
        {
          "indexed": true,
          "internalType": "address",
          "name": "recipient",
          "type": "address"
        },
        {
          "indexed": false,
          "internalType": "string",
          "name": "ipfsHash",
          "type": "string"
        },
        {
          "indexed": false,
          "internalType": "uint256",
          "name": "mintTime",
          "type": "uint256"
        }
      ],
      "name": "ContentMinted",
      "type": "event"
    },
    {
      "anonymous": false,
      "inputs": [
        {
          "indexed": true,
          "internalType": "address",
          "name": "previousOwner",
          "type": "address"
        },
        {
          "indexed": true,
          "internalType": "address",
          "name": "newOwner",
          "type": "address"
        }
      ],
      "name": "OwnershipTransferred",
      "type": "event"
    },
    {
      "anonymous": false,
      "inputs": [
        {
          "indexed": true,
          "internalType": "address",
          "name": "from",
          "type": "address"
        },
        {
          "indexed": true,
          "internalType": "address",
          "name": "to",
          "type": "address"
        },
        {
          "indexed": true,
          "internalType": "uint256",
          "name": "tokenId",
          "type": "uint256"
        }
      ],
      "name": "Transfer",
      "type": "event"
    },
    {
      "inputs": [
        {
          "internalType": "address",
          "name": "to",
          "type": "address"
        },
        {
          "internalType": "uint256",
          "name": "tokenId",
          "type": "uint256"
        }
      ],
      "name": "approve",
      "outputs": [],
      "stateMutability": "nonpayable",
      "type": "function"
    },
    {
      "inputs": [
        {
          "internalType": "address",
          "name": "owner",
          "type": "address"
        }
      ],
      "name": "balanceOf",
      "outputs": [
        {
          "internalType": "uint256",
          "name": "",
          "type": "uint256"
        }
      ],
      "stateMutability": "view",
      "type": "function"
    },
    {
      "inputs": [
        {
          "internalType": "uint256",
          "name": "tokenId",
          "type": "uint256"
        }
      ],
      "name": "getApproved",
      "outputs": [
        {
          "internalType": "address",
          "name": "",
          "type": "address"
        }
      ],
      "stateMutability": "view",
      "type": "function"
    },
    {
      "inputs": [
        {
          "internalType": "address",
          "name": "owner",
          "type": "address"
        },
        {
          "internalType": "address",
          "name": "operator",
          "type": "address"
        }
      ],
      "name": "isApprovedForAll",
      "outputs": [
        {
          "internalType": "bool",
          "name": "",
          "type": "bool"
        }
      ],
      "stateMutability": "view",
      "type": "function"
    },
    {
      "inputs": [],
      "name": "name",
      "outputs": [
        {
          "internalType": "string",
          "name": "",
          "type": "string"
        }
      ],
      "stateMutability": "view",
      "type": "function"
    },
    {
      "inputs": [],
      "name": "owner",
      "outputs": [
        {
          "internalType": "address",
          "name": "",
          "type": "address"
        }
      ],
      "stateMutability": "view",
      "type": "function"
    },
    {
      "inputs": [
        {
          "internalType": "uint256",
          "name": "tokenId",
          "type": "uint256"
        }
      ],
      "name": "ownerOf",
      "outputs": [
        {
          "internalType": "address",
          "name": "",
          "type": "address"
        }
      ],
      "stateMutability": "view",
      "type": "function"
    },
    {
      "inputs": [],
      "name": "renounceOwnership",
      "outputs": [],
      "stateMutability": "nonpayable",
      "type": "function"
    },
    {
      "inputs": [
        {
          "internalType": "address",
          "name": "from",
          "type": "address"
        },
        {
          "internalType": "address",
          "name": "to",
          "type": "address"
        },
        {
          "internalType": "uint256",
          "name": "tokenId",
          "type": "uint256"
        }
      ],
      "name": "safeTransferFrom",
      "outputs": [],
      "stateMutability": "nonpayable",
      "type": "function"
    },
    {
      "inputs": [
        {
          "internalType": "address",
          "name": "from",
          "type": "address"
        },
        {
          "internalType": "address",
          "name": "to",
          "type": "address"
        },
        {
          "internalType": "uint256",
          "name": "tokenId",
          "type": "uint256"
        },
        {
          "internalType": "bytes",
          "name": "data",
          "type": "bytes"
        }
      ],
      "name": "safeTransferFrom",
      "outputs": [],
      "stateMutability": "nonpayable",
      "type": "function"
    },
    {
      "inputs": [
        {
          "internalType": "address",
          "name": "operator",
          "type": "address"
        },
        {
          "internalType": "bool",
          "name": "approved",
          "type": "bool"
        }
      ],
      "name": "setApprovalForAll",
      "outputs": [],
      "stateMutability": "nonpayable",
      "type": "function"
    },
    {
      "inputs": [
        {
          "internalType": "bytes4",
          "name": "interfaceId",
          "type": "bytes4"
        }
      ],
      "name": "supportsInterface",
      "outputs": [
        {
          "internalType": "bool",
          "name": "",
          "type": "bool"
        }
      ],
      "stateMutability": "view",
      "type": "function"
    },
    {
      "inputs": [],
      "name": "symbol",
      "outputs": [
        {
          "internalType": "string",
          "name": "",
          "type": "string"
        }
      ],
      "stateMutability": "view",
      "type": "function"
    },
    {
      "inputs": [
        {
          "internalType": "uint256",
          "name": "",
          "type": "uint256"
        }
      ],
      "name": "tokenMeta",
      "outputs": [
        {
          "internalType": "string",
          "name": "title",
          "type": "string"
        },
        {
          "internalType": "string",
          "name": "ipfsHash",
          "type": "string"
        },
        {
          "internalType": "string",
          "name": "contentType",
          "type": "string"
        },
        {
          "internalType": "uint256",
          "name": "mintTime",
          "type": "uint256"
        },
        {
          "internalType": "uint256",
          "name": "likeCount",
          "type": "uint256"
        }
      ],
      "stateMutability": "view",
      "type": "function"
    },
    {
      "inputs": [
        {
          "internalType": "address",
          "name": "from",
          "type": "address"
        },
        {
          "internalType": "address",
          "name": "to",
          "type": "address"
        },
        {
          "internalType": "uint256",
          "name": "tokenId",
          "type": "uint256"
        }
      ],
      "name": "transferFrom",
      "outputs": [],
      "stateMutability": "nonpayable",
      "type": "function"
    },
    {
      "inputs": [
        {
          "internalType": "address",
          "name": "newOwner",
          "type": "address"
        }
      ],
      "name": "transferOwnership",
      "outputs": [],
      "stateMutability": "nonpayable",
      "type": "function"
    },
    {
      "inputs": [
        {
          "internalType": "address",
          "name": "to",
          "type": "address"
        },
        {
          "internalType": "string",
          "name": "title",
          "type": "string"
        },
        {
          "internalType": "string",
          "name": "ipfsHash",
          "type": "string"
        },
        {
          "internalType": "string",
          "name": "contentType",
          "type": "string"
        }
      ],
      "name": "mintContent",
      "outputs": [
        {
          "internalType": "uint256",
          "name": "",
          "type": "uint256"
        }
      ],
      "stateMutability": "nonpayable",
      "type": "function"
    },
    {
      "inputs": [
        {
          "internalType": "uint256",
          "name": "tokenId",
          "type": "uint256"
        }
      ],
      "name": "likeContent",
      "outputs": [],
      "stateMutability": "nonpayable",
      "type": "function"
    },
    {
      "inputs": [
        {
          "internalType": "uint256",
          "name": "tokenId",
          "type": "uint256"
        }
      ],
      "name": "tokenURI",
      "outputs": [
        {
          "internalType": "string",
          "name": "",
          "type": "string"
        }
      ],
      "stateMutability": "view",
      "type": "function"
    },
    {
      "inputs": [
        {
          "internalType": "uint256[]",
          "name": "tokenIds",
          "type": "uint256[]"
        }
      ],
      "name": "batchGetTokenMeta",
      "outputs": [
        {
          "components": [
            {
              "internalType": "string",
              "name": "title",
              "type": "string"
            },
            {
              "internalType": "string",
              "name": "ipfsHash",
              "type": "string"
            },
            {
              "internalType": "string",
              "name": "contentType",
              "type": "string"
            },
            {
              "internalType": "uint256",
              "name": "mintTime",
              "type": "uint256"
            },
            {
              "internalType": "uint256",
              "name": "likeCount",
              "type": "uint256"
            }
          ],
          "internalType": "struct ContentNFT.ContentMeta[]",
          "name": "",
          "type": "tuple[]"
        }
      ],
      "stateMutability": "view",
      "type": "function"
    }
  ],
  "bytecode": "0x608060405234801562000010575f80fd5b50604051620037e2380380620037e283398181016040528101906200003691906200033b565b338282815f9081620000499190620005f5565b5080600190816200005b9190620005f5565b5050505f73ffffffffffffffffffffffffffffffffffffffff168173ffffffffffffffffffffffffffffffffffffffff1603620000d1575f6040517f1e4fbdf7000000000000000000000000000000000000000000000000000000008152600401620000c891906200071c565b60405180910390fd5b620000e281620000f360201b60201c565b506001600781905550505062000737565b5f60065f9054906101000a900473ffffffffffffffffffffffffffffffffffffffff1690508160065f6101000a81548173ffffffffffffffffffffffffffffffffffffffff021916908373ffffffffffffffffffffffffffffffffffffffff1602179055508173ffffffffffffffffffffffffffffffffffffffff168173ffffffffffffffffffffffffffffffffffffffff167f8be0079c531659141344cd1fd0a4f28419497f9722a3daafe3b4186f6b6457e060405160405180910390a35050565b5f604051905090565b5f80fd5b5f80fd5b5f80fd5b5f80fd5b5f601f19601f8301169050919050565b7f4e487b71000000000000000000000000000000000000000000000000000000005f52604160045260245ffd5b6200021782620001cf565b810181811067ffffffffffffffff82111715620002395762000238620001df565b5b80604052505050565b5f6200024d620001b6565b90506200025b82826200020c565b919050565b5f67ffffffffffffffff8211156200027d576200027c620001df565b5b6200028882620001cf565b9050602081019050919050565b5f5b83811015620002b457808201518184015260208101905062000297565b5f8484015250505050565b5f620002d5620002cf8462000260565b62000242565b905082815260208101848484011115620002f457620002f3620001cb565b5b6200030184828562000295565b509392505050565b5f82601f83011262000320576200031f620001c7565b5b815162000332848260208601620002bf565b91505092915050565b5f8060408385031215620003545762000353620001bf565b5b5f83015167ffffffffffffffff811115620003745762000373620001c3565b5b620003828582860162000309565b925050602083015167ffffffffffffffff811115620003a657620003a5620001c3565b5b620003b48582860162000309565b9150509250929050565b5f81519050919050565b7f4e487b71000000000000000000000000000000000000000000000000000000005f52602260045260245ffd5b5f60028204905060018216806200040d57607f821691505b602082108103620004235762000422620003c8565b5b50919050565b5f819050815f5260205f209050919050565b5f6020601f8301049050919050565b5f82821b905092915050565b5f60088302620004877fffffffffffffffffffffffffffffffffffffffffffffffffffffffffffffffff826200044a565b6200049386836200044a565b95508019841693508086168417925050509392505050565b5f819050919050565b5f819050919050565b5f620004dd620004d7620004d184620004ab565b620004b4565b620004ab565b9050919050565b5f819050919050565b620004f883620004bd565b620005106200050782620004e4565b84845462000456565b825550505050565b5f90565b6200052662000518565b62000533818484620004ed565b505050565b5b818110156200055a576200054e5f826200051c565b60018101905062000539565b5050565b601f821115620005a957620005738162000429565b6200057e846200043b565b810160208510156200058e578190505b620005a66200059d856200043b565b83018262000538565b50505b505050565b5f82821c905092915050565b5f620005cb5f1984600802620005ae565b1980831691505092915050565b5f620005e58383620005ba565b9150826002028217905092915050565b6200060082620003be565b67ffffffffffffffff8111156200061c576200061b620001df565b5b620006288254620003f5565b620006358282856200055e565b5f60209050601f8311600181146200066b575f841562000656578287015190505b620006628582620005d8565b865550620006d1565b601f1984166200067b8662000429565b5f5b82811015620006a4578489015182556001820191506020850194506020810190506200067d565b86831015620006c45784890151620006c0601f891682620005ba565b8355505b6001600288020188555050505b505050505050565b5f73ffffffffffffffffffffffffffffffffffffffff82169050919050565b5f6200070482620006d9565b9050919050565b6200071681620006f8565b82525050565b5f602082019050620007315f8301846200070b565b92915050565b61309d80620007455f395ff3fe608060405234801561000f575f80fd5b506004361061012a575f3560e01c8063715018a6116100ab578063c87b56dd1161006f578063c87b56dd1461032e578063ccd8fcdb1461035e578063e985e9c51461038e578063eae87d7e146103be578063f2fde38b146103ee5761012a565b8063715018a6146102b05780638da5cb5b146102ba57806395d89b41146102d8578063a22cb465146102f6578063b88d4fde146103125761012a565b806323b872dd116100f257806323b872dd146101fc57806342842e0e146102185780635f37cd61146102345780636352211e1461025057806370a08231146102805761012a565b806301ffc9a71461012e57806306fdde031461015e578063081812fc1461017c578063095ea7b3146101ac5780630ae7a310146101c8575b5f80fd5b61014860048036038101906101439190611faf565b61040a565b6040516101559190611ff4565b60405180910390f35b6101666104eb565b6040516101739190612097565b60405180910390f35b610196600480360381019061019191906120ea565b61057a565b6040516101a39190612154565b60405180910390f35b6101c660048036038101906101c19190612197565b610595565b005b6101e260048036038101906101dd91906120ea565b6105ab565b6040516101f39594939291906121e4565b60405180910390f35b6102166004803603810190610211919061224a565b61076f565b005b610232600480360381019061022d919061224a565b61086e565b005b61024e600480360381019061024991906120ea565b61088d565b005b61026a600480360381019061026591906120ea565b61090f565b6040516102779190612154565b60405180910390f35b61029a6004803603810190610295919061229a565b610920565b6040516102a791906122c5565b60405180910390f35b6102b86109d6565b005b6102c26109e9565b6040516102cf9190612154565b60405180910390f35b6102e0610a11565b6040516102ed9190612097565b60405180910390f35b610310600480360381019061030b9190612308565b610aa1565b005b61032c60048036038101906103279190612472565b610ab7565b005b610348600480360381019061034391906120ea565b610adc565b6040516103559190612097565b60405180910390f35b6103786004803603810190610373919061254f565b610cf6565b604051610385919061272d565b60405180910390f35b6103a860048036038101906103a3919061274d565b610f9e565b6040516103b59190611ff4565b60405180910390f35b6103d860048036038101906103d39190612829565b61102c565b6040516103e591906122c5565b60405180910390f35b6104086004803603810190610403919061229a565b61127f565b005b5f7f80ac58cd000000000000000000000000000000000000000000000000000000007bffffffffffffffffffffffffffffffffffffffffffffffffffffffff1916827bffffffffffffffffffffffffffffffffffffffffffffffffffffffff191614806104d457507f5b5e139f000000000000000000000000000000000000000000000000000000007bffffffffffffffffffffffffffffffffffffffffffffffffffffffff1916827bffffffffffffffffffffffffffffffffffffffffffffffffffffffff1916145b806104e457506104e382611303565b5b9050919050565b60605f80546104f99061290e565b80601f01602080910402602001604051908101604052809291908181526020018280546105259061290e565b80156105705780601f1061054757610100808354040283529160200191610570565b820191905f5260205f20905b81548152906001019060200180831161055357829003601f168201915b5050505050905090565b5f6105848261136c565b5061058e826113f2565b9050919050565b6105a782826105a261142b565b611432565b5050565b6008602052805f5260405f205f91509050805f0180546105ca9061290e565b80601f01602080910402602001604051908101604052809291908181526020018280546105f69061290e565b80156106415780601f1061061857610100808354040283529160200191610641565b820191905f5260205f20905b81548152906001019060200180831161062457829003601f168201915b5050505050908060010180546106569061290e565b80601f01602080910402602001604051908101604052809291908181526020018280546106829061290e565b80156106cd5780601f106106a4576101008083540402835291602001916106cd565b820191905f5260205f20905b8154815290600101906020018083116106b057829003601f168201915b5050505050908060020180546106e29061290e565b80601f016020809104026020016040519081016040528092919081815260200182805461070e9061290e565b80156107595780601f1061073057610100808354040283529160200191610759565b820191905f5260205f20905b81548152906001019060200180831161073c57829003601f168201915b5050505050908060030154908060040154905085565b5f73ffffffffffffffffffffffffffffffffffffffff168273ffffffffffffffffffffffffffffffffffffffff16036107df575f6040517f64a0ae920000000000000000000000000000000000000000000000000000000081526004016107d69190612154565b60405180910390fd5b5f6107f283836107ed61142b565b611444565b90508373ffffffffffffffffffffffffffffffffffffffff168173ffffffffffffffffffffffffffffffffffffffff1614610868578382826040517f64283d7b00000000000000000000000000000000000000000000000000000000815260040161085f9392919061293e565b60405180910390fd5b50505050565b61088883838360405180602001604052805f815250610ab7565b505050565b6108968161090f565b5060085f8281526020019081526020015f206004015f8154809291906108bb906129a0565b9190505550807f8221de2d53bd518636253075efe40107ce462b26f9fa379e9dab5a3639d0588760085f8481526020019081526020015f206004015460405161090491906122c5565b60405180910390a250565b5f6109198261136c565b9050919050565b5f8073ffffffffffffffffffffffffffffffffffffffff168273ffffffffffffffffffffffffffffffffffffffff1603610991575f6040517f89c62b640000000000000000000000000000000000000000000000000000000081526004016109889190612154565b60405180910390fd5b60035f8373ffffffffffffffffffffffffffffffffffffffff1673ffffffffffffffffffffffffffffffffffffffff1681526020019081526020015f20549050919050565b6109de61164f565b6109e75f6116d6565b565b5f60065f9054906101000a900473ffffffffffffffffffffffffffffffffffffffff16905090565b606060018054610a209061290e565b80601f0160208091040260200160405190810160405280929190818152602001828054610a4c9061290e565b8015610a975780601f10610a6e57610100808354040283529160200191610a97565b820191905f5260205f20905b815481529060010190602001808311610a7a57829003601f168201915b5050505050905090565b610ab3610aac61142b565b8383611799565b5050565b610ac284848461076f565b610ad6610acd61142b565b85858585611902565b50505050565b6060610ae78261090f565b505f60085f8481526020019081526020015f206040518060a00160405290815f82018054610b149061290e565b80601f0160208091040260200160405190810160405280929190818152602001828054610b409061290e565b8015610b8b5780601f10610b6257610100808354040283529160200191610b8b565b820191905f5260205f20905b815481529060010190602001808311610b6e57829003601f168201915b50505050508152602001600182018054610ba49061290e565b80601f0160208091040260200160405190810160405280929190818152602001828054610bd09061290e565b8015610c1b5780601f10610bf257610100808354040283529160200191610c1b565b820191905f5260205f20905b815481529060010190602001808311610bfe57829003601f168201915b50505050508152602001600282018054610c349061290e565b80601f0160208091040260200160405190810160405280929190818152602001828054610c609061290e565b8015610cab5780601f10610c8257610100808354040283529160200191610cab565b820191905f5260205f20905b815481529060010190602001808311610c8e57829003601f168201915b505050505081526020016003820154815260200160048201548152505090508060200151604051602001610cdf9190612a6b565b604051602081830303815290604052915050919050565b60605f8383905090505f8167ffffffffffffffff811115610d1a57610d1961234e565b5b604051908082528060200260200182016040528015610d5357816020015b610d40611f1c565b815260200190600190039081610d385790505b5090505f5b82811015610f92575f868683818110610d7457610d73612a8c565b5b905060200201359050610d868161090f565b5060085f8281526020019081526020015f206040518060a00160405290815f82018054610db29061290e565b80601f0160208091040260200160405190810160405280929190818152602001828054610dde9061290e565b8015610e295780601f10610e0057610100808354040283529160200191610e29565b820191905f5260205f20905b815481529060010190602001808311610e0c57829003601f168201915b50505050508152602001600182018054610e429061290e565b80601f0160208091040260200160405190810160405280929190818152602001828054610e6e9061290e565b8015610eb95780601f10610e9057610100808354040283529160200191610eb9565b820191905f5260205f20905b815481529060010190602001808311610e9c57829003601f168201915b50505050508152602001600282018054610ed29061290e565b80601f0160208091040260200160405190810160405280929190818152602001828054610efe9061290e565b8015610f495780601f10610f2057610100808354040283529160200191610f49565b820191905f5260205f20905b815481529060010190602001808311610f2c57829003601f168201915b5050505050815260200160038201548152602001600482015481525050838381518110610f7957610f78612a8c565b5b6020026020010181905250508080600101915050610d58565b50809250505092915050565b5f60055f8473ffffffffffffffffffffffffffffffffffffffff1673ffffffffffffffffffffffffffffffffffffffff1681526020019081526020015f205f8373ffffffffffffffffffffffffffffffffffffffff1673ffffffffffffffffffffffffffffffffffffffff1681526020019081526020015f205f9054906101000a900460ff16905092915050565b5f61103561164f565b5f73ffffffffffffffffffffffffffffffffffffffff168573ffffffffffffffffffffffffffffffffffffffff16036110a3576040517f08c379a000000000000000000000000000000000000000000000000000000000815260040161109a90612b29565b60405180910390fd5b5f8451116110e6576040517f08c379a00000000000000000000000000000000000000000000000000000000081526004016110dd90612b91565b60405180910390fd5b5f835111611129576040517f08c379a000000000000000000000000000000000000000000000000000000000815260040161112090612c1f565b60405180910390fd5b5f82511161116c576040517f08c379a000000000000000000000000000000000000000000000000000000000815260040161116390612cad565b60405180910390fd5b5f600754905060075f815480929190611184906129a0565b91905055506111938682611aae565b6040518060a001604052808681526020018581526020018481526020014281526020015f81525060085f8381526020019081526020015f205f820151815f0190816111de9190612e68565b5060208201518160010190816111f49190612e68565b50604082015181600201908161120a9190612e68565b5060608201518160030155608082015181600401559050508573ffffffffffffffffffffffffffffffffffffffff16817fad2f3102b52ed78d88ffedc01e0fb70ea3136f36d26b38f6969d9a514c7be45a864260405161126b929190612f37565b60405180910390a380915050949350505050565b61128761164f565b5f73ffffffffffffffffffffffffffffffffffffffff168173ffffffffffffffffffffffffffffffffffffffff16036112f7575f6040517f1e4fbdf70000000000000000000000000000000000000000000000000000000081526004016112ee9190612154565b60405180910390fd5b611300816116d6565b50565b5f7f01ffc9a7000000000000000000000000000000000000000000000000000000007bffffffffffffffffffffffffffffffffffffffffffffffffffffffff1916827bffffffffffffffffffffffffffffffffffffffffffffffffffffffff1916149050919050565b5f8061137783611ba1565b90505f73ffffffffffffffffffffffffffffffffffffffff168173ffffffffffffffffffffffffffffffffffffffff16036113e957826040517f7e2732890000000000000000000000000000000000000000000000000000000081526004016113e091906122c5565b60405180910390fd5b80915050919050565b5f60045f8381526020019081526020015f205f9054906101000a900473ffffffffffffffffffffffffffffffffffffffff169050919050565b5f33905090565b61143f8383836001611bda565b505050565b5f8061144f84611ba1565b90505f73ffffffffffffffffffffffffffffffffffffffff168373ffffffffffffffffffffffffffffffffffffffff16146114905761148f818486611d99565b5b5f73ffffffffffffffffffffffffffffffffffffffff168173ffffffffffffffffffffffffffffffffffffffff161461151b576114cf5f855f80611bda565b600160035f8373ffffffffffffffffffffffffffffffffffffffff1673ffffffffffffffffffffffffffffffffffffffff1681526020019081526020015f205f82825403925050819055505b5f73ffffffffffffffffffffffffffffffffffffffff168573ffffffffffffffffffffffffffffffffffffffff161461159a57600160035f8773ffffffffffffffffffffffffffffffffffffffff1673ffffffffffffffffffffffffffffffffffffffff1681526020019081526020015f205f82825401925050819055505b8460025f8681526020019081526020015f205f6101000a81548173ffffffffffffffffffffffffffffffffffffffff021916908373ffffffffffffffffffffffffffffffffffffffff160217905550838573ffffffffffffffffffffffffffffffffffffffff168273ffffffffffffffffffffffffffffffffffffffff167fddf252ad1be2c89b69c2b068fc378daa952ba7f163c4a11628f55a4df523b3ef60405160405180910390a4809150509392505050565b61165761142b565b73ffffffffffffffffffffffffffffffffffffffff166116756109e9565b73ffffffffffffffffffffffffffffffffffffffff16146116d45761169861142b565b6040517f118cdaa70000000000000000000000000000000000000000000000000000000081526004016116cb9190612154565b60405180910390fd5b565b5f60065f9054906101000a900473ffffffffffffffffffffffffffffffffffffffff1690508160065f6101000a81548173ffffffffffffffffffffffffffffffffffffffff021916908373ffffffffffffffffffffffffffffffffffffffff1602179055508173ffffffffffffffffffffffffffffffffffffffff168173ffffffffffffffffffffffffffffffffffffffff167f8be0079c531659141344cd1fd0a4f28419497f9722a3daafe3b4186f6b6457e060405160405180910390a35050565b5f73ffffffffffffffffffffffffffffffffffffffff168273ffffffffffffffffffffffffffffffffffffffff160361180957816040517f5b08ba180000000000000000000000000000000000000000000000000000000081526004016118009190612154565b60405180910390fd5b8060055f8573ffffffffffffffffffffffffffffffffffffffff1673ffffffffffffffffffffffffffffffffffffffff1681526020019081526020015f205f8473ffffffffffffffffffffffffffffffffffffffff1673ffffffffffffffffffffffffffffffffffffffff1681526020019081526020015f205f6101000a81548160ff0219169083151502179055508173ffffffffffffffffffffffffffffffffffffffff168373ffffffffffffffffffffffffffffffffffffffff167f17307eab39ab6107e8899845ad3d59bd9653f200f220920489ca2b5937696c31836040516118f59190611ff4565b60405180910390a3505050565b5f8373ffffffffffffffffffffffffffffffffffffffff163b1115611aa7578273ffffffffffffffffffffffffffffffffffffffff1663150b7a02868685856040518563ffffffff1660e01b81526004016119609493929190612fb7565b6020604051808303815f875af192505050801561199b57506040513d601f19601f820116820180604052508101906119989190613015565b60015b611a1c573d805f81146119c9576040519150601f19603f3d011682016040523d82523d5f602084013e6119ce565b606091505b505f815103611a1457836040517f64a0ae92000000000000000000000000000000000000000000000000000000008152600401611a0b9190612154565b60405180910390fd5b805160208201fd5b63150b7a0260e01b7bffffffffffffffffffffffffffffffffffffffffffffffffffffffff1916817bffffffffffffffffffffffffffffffffffffffffffffffffffffffff191614611aa557836040517f64a0ae92000000000000000000000000000000000000000000000000000000008152600401611a9c9190612154565b60405180910390fd5b505b5050505050565b5f73ffffffffffffffffffffffffffffffffffffffff168273ffffffffffffffffffffffffffffffffffffffff1603611b1e575f6040517f64a0ae92000000000000000000000000000000000000000000000000000000008152600401611b159190612154565b60405180910390fd5b5f611b2a83835f611444565b90505f73ffffffffffffffffffffffffffffffffffffffff168173ffffffffffffffffffffffffffffffffffffffff1614611b9c575f6040517f73c6ac6e000000000000000000000000000000000000000000000000000000008152600401611b939190612154565b60405180910390fd5b505050565b5f60025f8381526020019081526020015f205f9054906101000a900473ffffffffffffffffffffffffffffffffffffffff169050919050565b8080611c1257505f73ffffffffffffffffffffffffffffffffffffffff168273ffffffffffffffffffffffffffffffffffffffff1614155b15611d44575f611c218461136c565b90505f73ffffffffffffffffffffffffffffffffffffffff168373ffffffffffffffffffffffffffffffffffffffff1614158015611c8b57508273ffffffffffffffffffffffffffffffffffffffff168173ffffffffffffffffffffffffffffffffffffffff1614155b8015611c9e5750611c9c8184610f9e565b155b15611ce057826040517fa9fbf51f000000000000000000000000000000000000000000000000000000008152600401611cd79190612154565b60405180910390fd5b8115611d4257838573ffffffffffffffffffffffffffffffffffffffff168273ffffffffffffffffffffffffffffffffffffffff167f8c5be1e5ebec7d5bd14f71427d1e84f3dd0314c0f7b2291e5b200ac8c7c3b92560405160405180910390a45b505b8360045f8581526020019081526020015f205f6101000a81548173ffffffffffffffffffffffffffffffffffffffff021916908373ffffffffffffffffffffffffffffffffffffffff16021790555050505050565b611da4838383611e5c565b611e57575f73ffffffffffffffffffffffffffffffffffffffff168373ffffffffffffffffffffffffffffffffffffffff1603611e1857806040517f7e273289000000000000000000000000000000000000000000000000000000008152600401611e0f91906122c5565b60405180910390fd5b81816040517f177e802f000000000000000000000000000000000000000000000000000000008152600401611e4e929190613040565b60405180910390fd5b505050565b5f8073ffffffffffffffffffffffffffffffffffffffff168373ffffffffffffffffffffffffffffffffffffffff1614158015611f1357508273ffffffffffffffffffffffffffffffffffffffff168473ffffffffffffffffffffffffffffffffffffffff161480611ed45750611ed38484610f9e565b5b80611f1257508273ffffffffffffffffffffffffffffffffffffffff16611efa836113f2565b73ffffffffffffffffffffffffffffffffffffffff16145b5b90509392505050565b6040518060a001604052806060815260200160608152602001606081526020015f81526020015f81525090565b5f604051905090565b5f80fd5b5f80fd5b5f7fffffffff0000000000000000000000000000000000000000000000000000000082169050919050565b611f8e81611f5a565b8114611f98575f80fd5b50565b5f81359050611fa981611f85565b92915050565b5f60208284031215611fc457611fc3611f52565b5b5f611fd184828501611f9b565b91505092915050565b5f8115159050919050565b611fee81611fda565b82525050565b5f6020820190506120075f830184611fe5565b92915050565b5f81519050919050565b5f82825260208201905092915050565b5f5b83811015612044578082015181840152602081019050612029565b5f8484015250505050565b5f601f19601f8301169050919050565b5f6120698261200d565b6120738185612017565b9350612083818560208601612027565b61208c8161204f565b840191505092915050565b5f6020820190508181035f8301526120af818461205f565b905092915050565b5f819050919050565b6120c9816120b7565b81146120d3575f80fd5b50565b5f813590506120e4816120c0565b92915050565b5f602082840312156120ff576120fe611f52565b5b5f61210c848285016120d6565b91505092915050565b5f73ffffffffffffffffffffffffffffffffffffffff82169050919050565b5f61213e82612115565b9050919050565b61214e81612134565b82525050565b5f6020820190506121675f830184612145565b92915050565b61217681612134565b8114612180575f80fd5b50565b5f813590506121918161216d565b92915050565b5f80604083850312156121ad576121ac611f52565b5b5f6121ba85828601612183565b92505060206121cb858286016120d6565b9150509250929050565b6121de816120b7565b82525050565b5f60a0820190508181035f8301526121fc818861205f565b90508181036020830152612210818761205f565b90508181036040830152612224818661205f565b905061223360608301856121d5565b61224060808301846121d5565b9695505050505050565b5f805f6060848603121561226157612260611f52565b5b5f61226e86828701612183565b935050602061227f86828701612183565b9250506040612290868287016120d6565b9150509250925092565b5f602082840312156122af576122ae611f52565b5b5f6122bc84828501612183565b91505092915050565b5f6020820190506122d85f8301846121d5565b92915050565b6122e781611fda565b81146122f1575f80fd5b50565b5f81359050612302816122de565b92915050565b5f806040838503121561231e5761231d611f52565b5b5f61232b85828601612183565b925050602061233c858286016122f4565b9150509250929050565b5f80fd5b5f80fd5b7f4e487b71000000000000000000000000000000000000000000000000000000005f52604160045260245ffd5b6123848261204f565b810181811067ffffffffffffffff821117156123a3576123a261234e565b5b80604052505050565b5f6123b5611f49565b90506123c1828261237b565b919050565b5f67ffffffffffffffff8211156123e0576123df61234e565b5b6123e98261204f565b9050602081019050919050565b828183375f83830152505050565b5f612416612411846123c6565b6123ac565b9050828152602081018484840111156124325761243161234a565b5b61243d8482856123f6565b509392505050565b5f82601f83011261245957612458612346565b5b8135612469848260208601612404565b91505092915050565b5f805f806080858703121561248a57612489611f52565b5b5f61249787828801612183565b94505060206124a887828801612183565b93505060406124b9878288016120d6565b925050606085013567ffffffffffffffff8111156124da576124d9611f56565b5b6124e687828801612445565b91505092959194509250565b5f80fd5b5f80fd5b5f8083601f84011261250f5761250e612346565b5b8235905067ffffffffffffffff81111561252c5761252b6124f2565b5b602083019150836020820283011115612548576125476124f6565b5b9250929050565b5f806020838503121561256557612564611f52565b5b5f83013567ffffffffffffffff81111561258257612581611f56565b5b61258e858286016124fa565b92509250509250929050565b5f81519050919050565b5f82825260208201905092915050565b5f819050602082019050919050565b5f82825260208201905092915050565b5f6125dd8261200d565b6125e781856125c3565b93506125f7818560208601612027565b6126008161204f565b840191505092915050565b612614816120b7565b82525050565b5f60a083015f8301518482035f86015261263482826125d3565b9150506020830151848203602086015261264e82826125d3565b9150506040830151848203604086015261266882826125d3565b915050606083015161267d606086018261260b565b506080830151612690608086018261260b565b508091505092915050565b5f6126a6838361261a565b905092915050565b5f602082019050919050565b5f6126c48261259a565b6126ce81856125a4565b9350836020820285016126e0856125b4565b805f5b8581101561271b57848403895281516126fc858261269b565b9450612707836126ae565b925060208a019950506001810190506126e3565b50829750879550505050505092915050565b5f6020820190508181035f83015261274581846126ba565b905092915050565b5f806040838503121561276357612762611f52565b5b5f61277085828601612183565b925050602061278185828601612183565b9150509250929050565b5f67ffffffffffffffff8211156127a5576127a461234e565b5b6127ae8261204f565b9050602081019050919050565b5f6127cd6127c88461278b565b6123ac565b9050828152602081018484840111156127e9576127e861234a565b5b6127f48482856123f6565b509392505050565b5f82601f8301126128105761280f612346565b5b81356128208482602086016127bb565b91505092915050565b5f805f806080858703121561284157612840611f52565b5b5f61284e87828801612183565b945050602085013567ffffffffffffffff81111561286f5761286e611f56565b5b61287b878288016127fc565b935050604085013567ffffffffffffffff81111561289c5761289b611f56565b5b6128a8878288016127fc565b925050606085013567ffffffffffffffff8111156128c9576128c8611f56565b5b6128d5878288016127fc565b91505092959194509250565b7f4e487b71000000000000000000000000000000000000000000000000000000005f52602260045260245ffd5b5f600282049050600182168061292557607f821691505b602082108103612938576129376128e1565b5b50919050565b5f6060820190506129515f830186612145565b61295e60208301856121d5565b61296b6040830184612145565b949350505050565b7f4e487b71000000000000000000000000000000000000000000000000000000005f52601160045260245ffd5b5f6129aa826120b7565b91507fffffffffffffffffffffffffffffffffffffffffffffffffffffffffffffffff82036129dc576129db612973565b5b600182019050919050565b5f81905092915050565b7f697066733a2f2f000000000000000000000000000000000000000000000000005f82015250565b5f612a256007836129e7565b9150612a30826129f1565b600782019050919050565b5f612a458261200d565b612a4f81856129e7565b9350612a5f818560208601612027565b80840191505092915050565b5f612a7582612a19565b9150612a818284612a3b565b915081905092915050565b7f4e487b71000000000000000000000000000000000000000000000000000000005f52603260045260245ffd5b7f436f6e74656e744e46543a20e68ea5e694b6e59cb0e59d80e4b88de883bde4b85f8201527fbae99bb6e59cb0e59d8000000000000000000000000000000000000000000000602082015250565b5f612b13602a83612017565b9150612b1e82612ab9565b604082019050919050565b5f6020820190508181035f830152612b4081612b07565b9050919050565b7f436f6e74656e744e46543a20e6a087e9a298e4b88de883bde4b8bae7a9ba00005f82015250565b5f612b7b601e83612017565b9150612b8682612b47565b602082019050919050565b5f6020820190508181035f830152612ba881612b6f565b9050919050565b7f436f6e74656e744e46543a2049504653e59388e5b88ce4b88de883bde4b8bae75f8201527fa9ba000000000000000000000000000000000000000000000000000000000000602082015250565b5f612c09602283612017565b9150612c1482612baf565b604082019050919050565b5f6020820190508181035f830152612c3681612bfd565b9050919050565b7f436f6e74656e744e46543a20e58685e5aeb9e7b1bbe59e8be4b88de883bde4b85f8201527fbae7a9ba00000000000000000000000000000000000000000000000000000000602082015250565b5f612c97602483612017565b9150612ca282612c3d565b604082019050919050565b5f6020820190508181035f830152612cc481612c8b565b9050919050565b5f819050815f5260205f209050919050565b5f6020601f8301049050919050565b5f82821b905092915050565b5f60088302612d277fffffffffffffffffffffffffffffffffffffffffffffffffffffffffffffffff82612cec565b612d318683612cec565b95508019841693508086168417925050509392505050565b5f819050919050565b5f612d6c612d67612d62846120b7565b612d49565b6120b7565b9050919050565b5f819050919050565b612d8583612d52565b612d99612d9182612d73565b848454612cf8565b825550505050565b5f90565b612dad612da1565b612db8818484612d7c565b505050565b5b81811015612ddb57612dd05f82612da5565b600181019050612dbe565b5050565b601f821115612e2057612df181612ccb565b612dfa84612cdd565b81016020851015612e09578190505b612e1d612e1585612cdd565b830182612dbd565b50505b505050565b5f82821c905092915050565b5f612e405f1984600802612e25565b1980831691505092915050565b5f612e588383612e31565b9150826002028217905092915050565b612e718261200d565b67ffffffffffffffff811115612e8a57612e8961234e565b5b612e94825461290e565b612e9f828285612ddf565b5f60209050601f831160018114612ed0575f8415612ebe578287015190505b612ec88582612e4d565b865550612f2f565b601f198416612ede86612ccb565b5f5b82811015612f0557848901518255600182019150602085019450602081019050612ee0565b86831015612f225784890151612f1e601f891682612e31565b8355505b6001600288020188555050505b505050505050565b5f6040820190508181035f830152612f4f818561205f565b9050612f5e60208301846121d5565b9392505050565b5f81519050919050565b5f82825260208201905092915050565b5f612f8982612f65565b612f938185612f6f565b9350612fa3818560208601612027565b612fac8161204f565b840191505092915050565b5f608082019050612fca5f830187612145565b612fd76020830186612145565b612fe460408301856121d5565b8181036060830152612ff68184612f7f565b905095945050505050565b5f8151905061300f81611f85565b92915050565b5f6020828403121561302a57613029611f52565b5b5f61303784828501613001565b91505092915050565b5f6040820190506130535f830185612145565b61306060208301846121d5565b939250505056fea2646970667358221220e8b82ef0fa926cdf9a8f1af2e028e0ff6173bac3a220ac66f8c959db0239452664736f6c63430008180033",
  "immutableReferences": {},
  "source": "// SPDX-License-Identifier: MIT\npragma solidity ^0.8.24;\n\nimport \"@openzeppelin/contracts/token/ERC721/ERC721.sol\";\nimport \"@openzeppelin/contracts/access/Ownable.sol\";\n\ncontract ContentNFT is ERC721, Ownable {\n    uint256 private _nextTokenId;\n\n    struct ContentMeta {\n        string title;\n        string ipfsHash;\n        string contentType;\n        uint256 mintTime;\n        uint256 likeCount;\n    }\n\n    event ContentMinted(\n        uint256 indexed tokenId,\n        address indexed recipient,\n        string ipfsHash,\n        uint256 mintTime\n    );\n\n    event ContentLiked(uint256 indexed tokenId, uint256 newLikeCount);\n\n    mapping(uint256 => ContentMeta) public tokenMeta;\n\n    /**\n     *  `: Ownable(msg.sender)`\n     *  ERC721 \n     */\n    constructor(\n        string memory nftName,\n        string memory nftSymbol\n    ) ERC721(nftName, nftSymbol) Ownable(msg.sender) { //  Ownable(msg.sender)\n        _nextTokenId = 1;\n    }\n\n    function mintContent(\n        address to,\n        string memory title,\n        string memory ipfsHash,\n        string memory contentType\n    ) external onlyOwner returns (uint256) {\n        require(to != address(0), unicode\"ContentNFT: \");\n        require(bytes(title).length > 0, unicode\"ContentNFT: \");\n        require(bytes(ipfsHash).length > 0, unicode\"ContentNFT: IPFS\");\n        require(bytes(contentType).length > 0, unicode\"ContentNFT: \");\n\n        uint256 tokenId = _nextTokenId;\n        _nextTokenId++;\n\n        _mint(to, tokenId);\n\n        tokenMeta[tokenId] = ContentMeta({\n            title: title,\n            ipfsHash: ipfsHash,\n            contentType: contentType,\n            mintTime: block.timestamp,\n            likeCount: 0\n        });\n\n        emit ContentMinted(tokenId, to, ipfsHash, block.timestamp);\n        return tokenId;\n    }\n\n    function likeContent(uint256 tokenId) external {\n        ownerOf(tokenId);\n        tokenMeta[tokenId].likeCount++;\n        emit ContentLiked(tokenId, tokenMeta[tokenId].likeCount);\n    }\n\n    function tokenURI(uint256 tokenId) public view override returns (string memory) {\n        ownerOf(tokenId);\n        ContentMeta memory meta = tokenMeta[tokenId];\n        return string(abi.encodePacked(\"ipfs://\", meta.ipfsHash));\n    }\n\n    function batchGetTokenMeta(uint256[] calldata tokenIds) external view returns (ContentMeta[] memory) {\n        uint256 length = tokenIds.length;\n        ContentMeta[] memory metaList = new ContentMeta[](length);\n\n        for (uint256 i = 0; i < length; i++) {\n            uint256 tokenId = tokenIds[i];\n            ownerOf(tokenId);\n            metaList[i] = tokenMeta[tokenId];\n        }\n\n        return metaList;\n    }\n}",
  "sourcePath": "/Users/danny/github/starlink/contracts/ContentNFT.sol",
  "compiler": {
    "name": "solc",
    "version": "0.8.24+commit.e11b9ed9.Emscripten.clang"
  },
  "schemaVersion": "3.4.16",
  "updatedAt": "2025-09-07T06:00:27.428Z",
  "devdoc": {
    "errors": {
      "ERC721IncorrectOwner(address,uint256,address)": [
        {
          "details": "Indicates an error related to the ownership over a particular token. Used in transfers.",
          "params": {
            "owner": "Address of the current owner of a token.",
            "sender": "Address whose tokens are being transferred.",
            "tokenId": "Identifier number of a token."
          }
        }
      ],
      "ERC721InsufficientApproval(address,uint256)": [
        {
          "details": "Indicates a failure with the `operator`s approval. Used in transfers.",
          "params": {
            "operator": "Address that may be allowed to operate on tokens without being their owner.",
            "tokenId": "Identifier number of a token."
          }
        }
      ],
      "ERC721InvalidApprover(address)": [
        {
          "details": "Indicates a failure with the `approver` of a token to be approved. Used in approvals.",
          "params": {
            "approver": "Address initiating an approval operation."
          }
        }
      ],
      "ERC721InvalidOperator(address)": [
        {
          "details": "Indicates a failure with the `operator` to be approved. Used in approvals.",
          "params": {
            "operator": "Address that may be allowed to operate on tokens without being their owner."
          }
        }
      ],
      "ERC721InvalidOwner(address)": [
        {
          "details": "Indicates that an address can't be an owner. For example, `address(0)` is a forbidden owner in ERC-20. Used in balance queries.",
          "params": {
            "owner": "Address of the current owner of a token."
          }
        }
      ],
      "ERC721InvalidReceiver(address)": [
        {
          "details": "Indicates a failure with the token `receiver`. Used in transfers.",
          "params": {
            "receiver": "Address to which tokens are being transferred."
          }
        }
      ],
      "ERC721InvalidSender(address)": [
        {
          "details": "Indicates a failure with the token `sender`. Used in transfers.",
          "params": {
            "sender": "Address whose tokens are being transferred."
          }
        }
      ],
      "ERC721NonexistentToken(uint256)": [
        {
          "details": "Indicates a `tokenId` whose `owner` is the zero address.",
          "params": {
            "tokenId": "Identifier number of a token."
          }
        }
      ],
      "OwnableInvalidOwner(address)": [
        {
          "details": "The owner is not a valid owner account. (eg. `address(0)`)"
        }
      ],
      "OwnableUnauthorizedAccount(address)": [
        {
          "details": "The caller account is not authorized to perform an operation."
        }
      ]
    },
    "events": {
      "Approval(address,address,uint256)": {
        "details": "Emitted when `owner` enables `approved` to manage the `tokenId` token."
      },
      "ApprovalForAll(address,address,bool)": {
        "details": "Emitted when `owner` enables or disables (`approved`) `operator` to manage all of its assets."
      },
      "Transfer(address,address,uint256)": {
        "details": "Emitted when `tokenId` token is transferred from `from` to `to`."
      }
    },
    "kind": "dev",
    "methods": {
      "approve(address,uint256)": {
        "details": "Gives permission to `to` to transfer `tokenId` token to another account. The approval is cleared when the token is transferred. Only a single account can be approved at a time, so approving the zero address clears previous approvals. Requirements: - The caller must own the token or be an approved operator. - `tokenId` must exist. Emits an {Approval} event."
      },
      "balanceOf(address)": {
        "details": "Returns the number of tokens in ``owner``'s account."
      },
      "getApproved(uint256)": {
        "details": "Returns the account approved for `tokenId` token. Requirements: - `tokenId` must exist."
      },
      "isApprovedForAll(address,address)": {
        "details": "Returns if the `operator` is allowed to manage all of the assets of `owner`. See {setApprovalForAll}"
      },
      "name()": {
        "details": "Returns the token collection name."
      },
      "owner()": {
        "details": "Returns the address of the current owner."
      },
      "ownerOf(uint256)": {
        "details": "Returns the owner of the `tokenId` token. Requirements: - `tokenId` must exist."
      },
      "renounceOwnership()": {
        "details": "Leaves the contract without owner. It will not be possible to call `onlyOwner` functions. Can only be called by the current owner. NOTE: Renouncing ownership will leave the contract without an owner, thereby disabling any functionality that is only available to the owner."
      },
      "safeTransferFrom(address,address,uint256)": {
        "details": "Safely transfers `tokenId` token from `from` to `to`, checking first that contract recipients are aware of the ERC-721 protocol to prevent tokens from being forever locked. Requirements: - `from` cannot be the zero address. - `to` cannot be the zero address. - `tokenId` token must exist and be owned by `from`. - If the caller is not `from`, it must have been allowed to move this token by either {approve} or   {setApprovalForAll}. - If `to` refers to a smart contract, it must implement {IERC721Receiver-onERC721Received}, which is called upon   a safe transfer. Emits a {Transfer} event."
      },
      "safeTransferFrom(address,address,uint256,bytes)": {
        "details": "Safely transfers `tokenId` token from `from` to `to`. Requirements: - `from` cannot be the zero address. - `to` cannot be the zero address. - `tokenId` token must exist and be owned by `from`. - If the caller is not `from`, it must be approved to move this token by either {approve} or {setApprovalForAll}. - If `to` refers to a smart contract, it must implement {IERC721Receiver-onERC721Received}, which is called upon   a safe transfer. Emits a {Transfer} event."
      },
      "setApprovalForAll(address,bool)": {
        "details": "Approve or remove `operator` as an operator for the caller. Operators can call {transferFrom} or {safeTransferFrom} for any token owned by the caller. Requirements: - The `operator` cannot be the address zero. Emits an {ApprovalForAll} event."
      },
      "supportsInterface(bytes4)": {
        "details": "Returns true if this contract implements the interface defined by `interfaceId`. See the corresponding https://eips.ethereum.org/EIPS/eip-165#how-interfaces-are-identified[ERC section] to learn more about how these ids are created. This function call must use less than 30 000 gas."
      },
      "symbol()": {
        "details": "Returns the token collection symbol."
      },
      "tokenURI(uint256)": {
        "details": "Returns the Uniform Resource Identifier (URI) for `tokenId` token."
      },
      "transferFrom(address,address,uint256)": {
        "details": "Transfers `tokenId` token from `from` to `to`. WARNING: Note that the caller is responsible to confirm that the recipient is capable of receiving ERC-721 or else they may be permanently lost. Usage of {safeTransferFrom} prevents loss, though the caller must understand this adds an external call which potentially creates a reentrancy vulnerability. Requirements: - `from` cannot be the zero address. - `to` cannot be the zero address. - `tokenId` token must be owned by `from`. - If the caller is not `from`, it must be approved to move this token by either {approve} or {setApprovalForAll}. Emits a {Transfer} event."
      },
      "transferOwnership(address)": {
        "details": "Transfers ownership of the contract to a new account (`newOwner`). Can only be called by the current owner."
      }
    },
    "version": 1
  },
  "userdoc": {
    "kind": "user",
    "methods": {
      "constructor": {
        "notice": " `: Ownable(msg.sender)`  ERC721 "
      }
    },
    "version": 1
  }
}